S00F000054756E656472612E7372656342
S113000013C037C036C035C034C033C032C031C06D
S113001030C02FC02EC02DC02CC02BC040C029C062
S113002028C027C026C0FF0211241FBECFE5D4E09C
S1130030DEBFCDBF10E0A0E6B0E0E2E3FAE102C02B
S113004005900D92A43BB107D9F721E0A4EBB0E0F1
S113005001C01D92AF3CB207E1F710E0C4E1D0E06B
S113006003C02197FE0105DAC331D107D1F7FCD1D2
S1130070DECCC6CF14BAF89416B83E9A3D9A329A9A
S1130080359A339A379A369A789408951092530190
S113009010924A0110924E0110924D0108951F9240
S11300A00F920FB60F9211242F933F934F935F93A8
S11300B06F937F938F939F93AF93BF93EF93FF932C
S11300C0809144019091450101969093450180935C
S11300D04401809184018093830185B180938401DC
S11300E09091830180916000981708F0EFC090917F
S11300F0840180916000981708F024C1E7C0E09162
S11301005301F0E080914B0190914C01EE0FFF1FE1
S1130110E75AFE4F91838083E0915301F0E0809190
S1130120810190918201EE0FFF1FE359FE4F9183ED
S11301308083109282011092810180915301811178
S113014008C010924A01809153018F5F809353013C
S1130150BDC080916D0190916E01E0915301F0E07A
S1130160EE0FFF1FE359FE4F208131814091620061
S113017050916300821B930B9C0122F422273327A6
S1130180281B390B241735070CF000C18091590145
S113019090915A0140914B0150914C01209164007F
S11301A0841B950BAC0122F444275527481B590B9B
S11301B0822F90E0481759070CF4F3C0E7C080E0A1
S11301C0E82FF0E0EE0FFF1FE359FE4F408151810D
S11301D02091570130915801240F351F3093580155
S11301E0209357018F5F90915301891748F38091B1
S11301F05701909158019093560180935501909125
S11302004601809161008917B8F46091550170919D
S1130210560180E090E0F5D79B01AC0160E07AE6FE
S113022087E197E455D720E030E048EC52E4BED8AB
S1130230B7D7CB01B4D6DED681E080935401E091E8
S11302405301F0E0EE0FFF1FE359FE4F208131818F
S113025030936E0120936D01E0915301F0E0EE0FB5
S1130260FF1FE75AFE4F2081318130935A012093BA
S113027059018093530110924A0128C007DF26C018
S113028020914B0130914C0180914D0190914E0190
S1130290821793078CF480914B0190914C019093B9
S11302A04E0180934D0110928201109281011092AF
S11302B04A01109253010AC080914A018F5F8093D2
S11302C04A0180914A018A3008F0E0DE809184017D
S11302D0882309F46FC080918401809181019091F9
S11302E082010196909382018093810120914801BB
S11302F0309149012F5F3F4F3093490120934801CA
S1130300809160004091840190E0841B9109AC01CC
S113031022F444275527481B590B80914701841721
S113032010F440934701283E334009F047C010922F
S1130330490110924801809147018093460110922F
S113034047013CC0809184012091830190E0821B8D
S1130350910990934C0180934B0180914B019091B2
S11303604C0140914D0150914E0120916400841B39
S1130370950BAC0122F444275527481B590B822FB7
S113038090E0481759070CF4BACE7ACF8091530104
S11303908F5F80935301809153018A3008F496CF84
S11303A06DCF109258011092570180915301811121
S11303B006CF1DCF81E0809385018FCFFF91EF9110
S11303C0BF91AF919F918F917F916F915F914F9169
S11303D03F912F910F900FBE0F901F9018958F9201
S11303E09F92AF92BF92CF92DF92EF92FF920F93C0
S11303F01F93CF93DF936C017B0116161706D4F479
S11304008C01C0E0D0E0812C912C5401C114D104A2
S113041051F0F8012081318142815381C501B40139
S1130420EFD54B015C0121960C5F1F4FEC16FD06C6
S113043069F703C0812C912C5401B701FF0C880B80
S1130440990BE1D69B01AC01C501B40141D6DF9102
S1130450CF911F910F91FF90EF90DF90CF90BF90BD
S1130460AF909F908F90089505DE83E390E070D560
S113047081E675D59091460180916100891708F055
S1130480B7C080915401882309F4B2C0109254017A
S1130490609155017091560180E090E0B2D69B01C5
S11304A0AC0160E07AE687E197E412D660934F01ED
S11304B070935001809351019093520160914F01C8
S11304C07091500180915101909152012DD3882354
S11304D009F48EC08091DE009091DF009C012F5FB3
S11304E03F4F3093DF002093DE0040914F01509145
S11304F050016091510170915201880F991F880F2A
S1130500991FFC01E052FF4F408351836283738340
S11305102931310524F01092DF001092DE0069E1E8
S113052070E080EE90E05BDF6B017C0120914F0175
S113053030915001409151015091520160D530D613
S11305409B01772324F422273327261B370BB90179
S1130550330F880B990B57D64B015C012DEC3CEC07
S11305604CE45EE3C701B60121D79B01AC01C50190
S1130570B401AAD588232CF58091B4009091B500DC
S11305809C012F5F3F4F3093B5002093B4004091FE
S11305904F01509150016091510170915201880FA7
S11305A0991F880F991FFC01EA54FF4F4083518320
S11305B0628373832A30310524F01092B5001092BF
S11305C0B4006AE070E086EB90E009DF6B017C0127
S11305D0AB01BC0180EC91E0C5D28091CE018823AF
S11305E039F0A701960160EC71E086E891E05ED2F3
S11305F08FE097E20197F1F700C000003BCF109223
S1130600CE01E6E8F1E01182108212820895FC0125
S1130610808191818617970799F012BA118210820E
S113062060FD919A61FD949A62FD959A63FD969A94
S113063064FD929A65FD939A66FD909A7183608336
S11306400895662311F0979A01C09798FC0162837C
S113065008954F925F926F927F928F929F92AF9282
S1130660BF92CF92DF92EF92FF92CF93DF93EC0190
S11306704A015B012AE037ED43EA5DE3C501B401B9
S113068095D62B013C016EA77FA788AB99AB2AE9CD
S113069039E949E15EE3C501B40188D66B017C0107
S11306A06AAB7BAB8CAB9DAB23E333E343EB5EE301
S11306B0C501B4017BD64B015C016EAB7FAB88AF47
S11306C099AFA301920160E070E084E892EC00D558
S11306D06E8B7F8B888F998F80E090E0A0EFB2E4DF
S11306E08AA39BA3ACA3BDA3A3019201C701B60136
S11306F086D49B01AC0160E070E080E192ECE8D428
S11307009B01AC016A8F7B8F8C8F9D8FC701B601D3
S11307104DD69B01AC0160E070E080E991E46FD4B8
S11307206EA37FA388A799A7A7019601C501B40169
S113073066D49B01AC0160E070E080E991ECC8D420
S11307409B01AC016E8F7F8F88A399A3C501B4016F
S11307502DD69B01AC0160E070E0CB0150D46AA7B8
S11307607BA78CA79DA7DF91CF91FF90EF90DF909F
S1130770CF90BF90AF909F908F907F906F905F903D
S11307804F9008958F929F92AF92BF92CF92DF9233
S1130790EF92FF920F931F93CF93DF93EC016A01C3
S11307A07B01B901A80155DF20E030E0A901C701B0
S11307B0B6018AD488230CF44FC08EA89FA8A8AC95
S11307C0B9ACA5019401C701B601ECD518160CF417
S11307D046C02EA53FA548A959A9C701B60174D49E
S11307E01816B4F42AA93BA94CA95DA9C701B601FE
S11307F06BD4181654F4A5019401C701B60164D44E
S113080018164CF002E010E008C001E010E005C04A
S113081000E010E002C003E010E0F8013196EE0FB2
S1130820FF1FEE0FFF1FEC0FFD1F22893389448940
S11308305589C701B601BAD50C5F1F4F000F111FB0
S1130840000F111FC00FD11F2A893B894C895D8974
S1130850D7D3A6D4CB0105C088E790E002C080E0DE
S113086090E0DF91CF911F910F91FF90EF90DF9077
S1130870CF90BF90AF909F908F9008952F923F920A
S11308804F925F926F927F928F929F92AF92BF929C
S1130890CF92DF92EF92FF920F931F93CF93DF9348
S11308A0CDB7DEB76C970FB6F894DEBF0FBECDBFE1
S11308B01C018B012D8B3E8B4F8B588FDB011696C1
S11308C08D919D910D90BC91A02D898F9A8FAB8FA6
S11308D0BC8FFB0182849384A484B5849C01AD0104
S11308E0C501B4018CD36B017C01D80112964D90E3
S11308F05D906D907C901597298D3A8D4B8D5C8D14
S11309006D897E898F89988D7AD39B01AC01C7014B
S1130910B601B4D469837A838B839C83298D3A8D01
S11309204B8D5C8DC301B2016AD320E030E040E01E
S11309305FE33CD59B01AC01C301B20160D39B01D1
S1130940AC016D897E898F89988D59D329D49B01F7
S1130950772324F422273327261B370BB901330FBF
S1130960880B990B50D49B01AC01C701B60186D406
S11309706D837E838F839887A30192016D897E891D
S11309808F89988D3CD30CD49B01772324F42227A0
S11309903327261B370BB901330F880B990B33D43C
S11309A09B01AC01C701B60169D469877A878B873B
S11309B09C87A3019201C501B40121D320E030E05A
S11309C040E05FE3F3D4A30192011AD32D893E8959
S11309D04F89588D14D3E4D39B01772324F4222721
S11309E03327261B370BB901330F880B990B0BD414
S11309F09B01AC01C701B60141D46D877E878F8707
S1130A00988B2D893E894F89588DC501B401F7D241
S1130A109B01AC01C701B60131D4698B7A8B8B8BF6
S1130A209C8BFE0131963F014101AA24A394B12C71
S1130A3006C0FFEFAF1ABF0A83E0880E911CD301F2
S1130A404D915D916D917D913D0197018601C101AB
S1130A5099DEB3E0AB16B10439F0F4018383F5E019
S1130A60AF16B10434F304C0D1011A968C93E1CFCC
S1130A706FE070E0C10103963DD26C960FB6F89416
S1130A80DEBF0FBECDBFDF91CF911F910F91FF90BD
S1130A90EF90DF90CF90BF90AF909F908F907F901A
S1130AA06F905F904F903F902F900895CF92DF9278
S1130AB0EF92FF920F931F93CF93DF93EC018B017F
S1130AC069017A01FB018081843481F028F4823445
S1130AD049F0833449F012C0863461F048F0873419
S1130AE059F00CC069E70BC062E709C06DE307C0A9
S1130AF063E705C063E603C06AE701C06FE670E020
S1130B00CE0185DDF8016181CE019BDDA70196014F
S1130B10B801CE01B3DEDF91CF911F910F91FF9009
S1130B20EF90DF90CF900895CF92DF92EF92FF92F3
S1130B306B017C012BE938E44EE751E433D488237C
S1130B405CF022E538E44EEF53E4C701B601BCD2B1
S1130B50881F8827881F01C080E0FF90EF90DF90F6
S1130B60CF9008952F923F924F925F926F927F920F
S1130B708F929F92AF92BF92CF92DF92EF92FF92A9
S1130B800F931F93CF93DF93CDB7DEB72C970FB698
S1130B90F894DEBF0FBECDBF9E838D8349835A83F5
S1130BA06B837C832BE938E44EE751E469817A81D5
S1130BB08B819C81F7D388230CF4F9C022E538E4B7
S1130BC04EEF53E469817A818B819C817DD28823A5
S1130BD00CF0EDC0F0C00F2EC12CD12CF0E8EF2E9C
S1130BE0FFE3FF2EF02DA7019601C701B60108D23D
S1130BF06B017C012BE938E44EEF51E4D7D34B0170
S1130C005C019B01AC0169817A818B819C81CAD38F
S1130C1018164CF38F829886A986BA86E8C01C0100
S1130C20510181E0A81AB108AB85BC856D917D9115
S1130C308D919D91BC87AB87A7019601B7D39B018A
S1130C40AC0169817A818B819C81D9D1A9D29B0124
S1130C50772324F422273327261B370BB901330FBC
S1130C60880B990BD0D2962E072F182F892E272D5B
S1130C70342D452D562D28D2882354F4C1010196D4
S1130C80792C402E512E682C8C30910541F601C0F0
S1130C901501F101EF58FF4F8081ED81FE818083C2
S1130CA0F101EB59FF4F8081AD81BE8111968C9388
S1130CB0F101EE0FFF1FEE0FFF1FE358FF4F2081DE
S1130CC0318142815381C701B60170D32B013C01AC
S1130CD0ED81FE81628373838483958381E08687BB
S1130CE0FBE02F16310459F48F819885A985BA85C4
S1130CF0ED81FE8182879387A487B58732C0F10195
S1130D00EE0FFF1FEE0FFF1FEF57FF4F20813181C2
S1130D1042815381C701B60149D3A30192016FD126
S1130D2020E030E040E05FE341D3A301920168D1C9
S1130D30AD81BE811A966D937D938D939C931D977F
S1130D402114310471F42BE938E44EE751E4C7016E
S1130D50B6012CD3ED81FE816683778380879187EA
S1130D60B0C0F101EE0FFF1FEE0FFF1FE758FF4F5A
S1130D702081318142815381C701B60117D39B0180
S1130D80AC01C301B2013BD120E030E040E05FE3BD
S1130D900DD39B01AC01C301B20131D1AD81BE8140
S1130DA016966D937D938D939C9319978AC0ED81CC
S1130DB0FE81168686C02BE938E44EEF51E4698142
S1130DC07A818B819C81EED218160CF404CF8BE9C6
S1130DD098E4AEEFB1E48F839887A987BA870F2E82
S1130DE0C12CD12CF0E8EF2EFFE3FF2EF02D23E1F0
S1130DF030ED42E851E4C701B601D8D29B01AC0101
S1130E0069817A818B819C81FAD0CAD19B01772335
S1130E1024F422273327261B370BB901330F880B01
S1130E20990BF1D1762E472E582E692E22E538E4FF
S1130E304EEF53E449D1882344F4A1E8B0E02224DE
S1130E402394312CBC87AB87EBCE80917000ED816D
S1130E50FE818083809164008183209179003091A8
S1130E607A0040917B0050917C00C701B6019ED26C
S1130E702B013C01AD81BE8112966D937D938D93C0
S1130E809C93159781E01E968C9323E130ED42E804
S1130E9051E4C701B6018AD2A3019201B0D020E087
S1130EA030E040E05FE382D2A3019201A9D0ED815A
S1130EB0FE81628773878487958722242A94322C43
S1130EC050CF2C960FB6F894DEBF0FBECDBFDF9186
S1130ED0CF911F910F91FF90EF90DF90CF90BF9033
S1130EE0AF909F908F907F906F905F904F903F90C6
S1130EF02F900895B99A28B32D7F38B332604FB735
S1130F00F8946115710509F421C0FC01680F791F7B
S1130F10919188E038BB97FF28BB990F000000C06F
S1130F2028BB000000C000C000C000C000C000C05A
S1130F3000C000C000C000C000C000C000C000C0AD
S1130F4000C08A9539F7E617F70711F74FBF0895E0
S1130F5090BD89B988E18AB98EE880BD08955D9B0A
S1130F60FECF8CB908950F931F93CF93DF93FC01A9
S1130F7001900020E9F73197E81BF90B1E161F06B4
S1130F804CF4EC018C010E0F1F1F8991E8DFC01790
S1130F90D107D9F7DF91CF911F910F9108950F9346
S1130FA01F93CF93DF93CDB7DEB76E970FB6F89448
S1130FB0DEBF0FBECDBF9F938F9380EB90E09F93D6
S1130FC08F938E010F5F1F4F1F930F9358D2C80149
S1130FD0CADF0F900F900F900F900F900F906E96A6
S1130FE00FB6F894DEBF0FBECDBFDF91CF911F9136
S1130FF00F9108958DE0B3DF8AE0B1DF0895505872
S1131000BB27AA270ED094C185D130F08AD120F015
S113101031F49F3F11F41EF47AC10EF4E095E7FB1E
S113102070C1E92F96D180F3BA176207730784075A
S1131030950718F071F49EF5AEC10EF4E0950B2EF1
S1131040BA2FA02D0B01B90190010C01CA01A00116
S11310501124FF27591B99F0593F50F4503E68F171
S11310601A16F040A22F232F342F4427585FF3CFB2
S1131070469537952795A795F0405395C9F77EF483
S11310801F16BA0B620B730B840BBAF09150A1F0CC
S1131090FF0FBB1F661F771F881FC2F70EC0BA0F52
S11310A0621F731F841F48F4879577956795B795DA
S11310B0F7959E3F08F0B3CF9395880F08F09927D2
S11310C0EE0F979587950895F8D008F481E0089578
S11310D00CD02EC126D140F01DD130F021F45F3F59
S11310E019F00FC1511158C112C133D198F399238A
S11310F0C9F35523B1F3951B550BBB27AA276217D8
S11311007307840738F09F5F5F4F220F331F441F1C
S1131110AA1FA9F333D00E2E3AF0E0E830D0915054
S11311205040E695001CCAF729D0FE2F27D0660F41
S1131130771F881FBB1F261737074807AB07B0E880
S113114009F0BB0B802DBF01FF2793585F4F2AF096
S11311509E3F510568F0D5C01FC15F3FECF3983E38
S1131160DCF3869577956795B795F7959F5FC9F7F3
S1131170880F911D9695879597F90895E1E0660F7C
S1131180771F881FBB1F621773078407BA0720F0F5
S1131190621B730B840BBA0BEE1F88F7E09508955E
S11311A004D06894B111F8C00895DBD088F09F573B
S11311B090F0B92F9927B751A0F0D1F0660F771F9F
S11311C0881F991F1AF0BA95C9F712C0B13081F07F
S11311D0E2D0B1E00895DFC0672F782F8827B85F89
S11311E039F0B93FCCF3869577956795B395D9F7E0
S11311F03EF490958095709561957F4F8F4F9F4FEA
S11312000895E89409C097FB3EF4909580957095F5
S113121061957F4F8F4F9F4F9923A9F0F92F96E93E
S1131220BB279395F695879577956795B795F111B3
S1131230F8CFFAF4BB0F11F460FF1BC06F5F7F4F50
S11312408F4F9F4F16C0882311F096E911C0772362
S113125021F09EE8872F762F05C0662371F096E86B
S1131260862F70E060E02AF09A95660F771F881F3A
S1131270DAF7880F9695879597F90895990FBB0B20
S1131280550FAA0BE0E8FEEF16161706E807F90754
S113129070F012161306E407F50760F0BA1754F05D
S11312A031F42617370748075907A7951BF4B901E6
S11312B0CA01BA2FB69597950895990F0008550F4E
S11312C0AA0BE0E8FEEF16161706E807F907C0F0C8
S11312D012161306E407F50798F0621B730B840BD0
S11312E0950B39F40A2661F0232B242B252B21F4AA
S11312F008950A2609F4A140A6958FEF811D811D4A
S1131300089597F99F6780E870E060E008959FEF83
S113131080EC089500240A94161617061806090688
S1131320089500240A941216130614060506089557
S1131330092E0394000C11F4882352F0BB0F40F4DF
S1131340BF2B11F460FF04C06F5F7F4F8F4F9F4F1F
S1131350089557FD9058440F551F59F05F3F71F0A1
S11313604795880F97FB991F61F09F3F79F0879508
S11313700895121613061406551FF2CF4695F1DF91
S113138008C0161617061806991FF1CF8695710521
S1131390610508940895E894BB2766277727CB0155
S11313A097F908958ADF08F48FEF08950BD0C0CF22
S11313B0B1DF28F0B6DF18F0952309F0A2CFA7CF4C
S11313C01124EACFC6DFA0F3959FD1F3950F50E027
S11313D0551F629FF001729FBB27F00DB11D639FE3
S11313E0AA27F00DB11DAA1F649F6627B00DA11D89
S11313F0661F829F2227B00DA11D621F739FB00D2F
S1131400A11D621F839FA00D611D221F749F33279E
S1131410A00D611D231F849F600D211D822F762F37
S11314206A2F11249F5750408AF0E1F088234AF034
S1131430EE0FFF1FBB1F661F771F881F9150504080
S1131440A9F79E3F510570F05CCFA6CF5F3FECF348
S1131450983EDCF3869577956795B795F795E7956C
S11314609F5FC1F7FE2B880F911D9695879597F97D
S11314700895EE0FFF1F0590F491E02D0994AEE05E
S1131480B0E0E4E4FAE0AAC20D891E8986E08C8308
S11314901A8309838FEF9FE79E838D83AE01475E96
S11314A05F4F6F89788DCE01019608D0EF81F88562
S11314B0E00FF11F10822E96E4E0ACC2ABE0B0E086
S11314C0E3E6FAE07DC26C017B018A01FC0117822C
S11314D01682838181FFBFC1CE0101963C01F601D2
S11314E09381F70193FD859193FF81917F01882377
S11314F009F4ADC1853239F493FD859193FF81914F
S11315007F01853221F4B60190E0C0D1E8CF912C5F
S1131510212C312CFFE1F315D8F08B3279F038F41B
S1131520803279F08332A1F4232D20611DC08D32E5
S113153061F0803369F4232D216016C0832D82600D
S1131540382EE32DE4603E2E2AC0F32DF8601DC032
S113155037FC2DC020ED280F2A3040F08E32B9F42C
S113156036FC75C1232D2064322E19C036FE06C008
S11315708AE0989E200D1124922E11C0EAE02E9E3E
S1131580200D1124222EF32DF0623F2E08C08C363C
S113159021F4832D8068382E02C0883641F4F70187
S11315A093FD859193FF81917F018111B3CF982F92
S11315B09F7D9554933028F40C5F1F4F9FE39983CC
S11315C00DC0833631F0833771F0833509F055C08F
S11315D020C0F801808189830E5F1F4F8824839483
S11315E0912C530112C02801F2E04F0E511CF80156
S11315F0A080B18036FE03C0692D70E002C06FEF99
S11316007FEFC50138D14C018201F32DFF773F2EC6
S113161015C0280122E0420E511CF801A080B180BF
S113162036FE03C0692D70E002C06FEF7FEFC50185
S113163017D14C01F32DF0683F2E820133FC19C001
S1131640822D90E088169906A0F4B60180E290E01D
S11316501DD12A94F5CFF50137FC859137FE819190
S11316605F01B60190E012D121102A9421E0821A80
S113167091088114910479F7E1C0843611F0893618
S113168039F5F80137FE07C0608171818281938149
S11316900C5F1F4F08C060817181072E000C880BFE
S11316A0990B0E5F1F4FF32DFF763F2E97FF09C056
S11316B090958095709561957F4F8F4F9F4FF068FF
S11316C03F2E2AE030E0A3011DD1882E861844C0A5
S11316D0853731F4232D2F7EB22E2AE030E025C049
S11316E0932D997FB92E8F36C1F018F4883579F08F
S11316F0AEC0803719F0883721F0A9C0E92FE06126
S1131700BE2EB4FE0DC0FB2DF460BF2E09C034FE06
S11317100AC0292F2660B22E06C028E030E005C09A
S113172020E130E002C020E132E0F801B7FE07C05A
S113173060817181828193810C5F1F4F06C060813B
S1131740718180E090E00E5F1F4FA301DBD0882EF3
S11317508618FB2DFF773F2E36FE0DC0232D2E7FDE
S1131760A22E891458F434FE0BC032FC09C0832D18
S11317708E7EA82E05C0B82CA32C03C0B82C01C0A3
S1131780B92CA4FE0FC0FE01E80DF11D8081803349
S113179021F49A2D997EA92E09C0A2FE06C0B39405
S11317A0B39404C08A2D867809F0B394A3FC10C0C6
S11317B0A0FE06C0B21480F4280C922C9B180DC015
S11317C0B21458F4B60180E290E060D0B394F8CF3C
S11317D0B21418F42B1802C0982C212CA4FE0FC0AC
S11317E0B60180E390E052D0A2FE16C0A1FC03C073
S11317F088E790E002C088E590E0B6010CC08A2D2D
S1131800867851F0A1FE02C08BE201C080E2A7FC01
S11318108DE2B60190E03AD0891430F4B60180E349
S113182090E034D09A94F8CF8A94F301E80DF11D36
S11318308081B60190E02AD08110F6CF222009F4ED
S11318404ECEB60180E290E021D02A94F7CFF60183
S11318508681978102C08FEF9FEF2B96E2E1CCC087
S1131860FC010590615070400110D8F78095909567
S11318708E0F9F1F0895FC0161507040019001106C
S1131880D8F7809590958E0F9F1F08950F931F93FF
S1131890CF93DF93FB01238121FD03C08FEF9FEFE3
S11318A02CC022FF16C046815781248135814217FE
S11318B0530744F4A081B1819D012F5F3F4F3183D1
S11318C020838C93268137812F5F3F4F3783268374
S11318D014C08B01EC01FB010084F185E02D099516
S11318E0892BE1F6D80116968D919C911797019654
S11318F017969C938E931697CE01DF91CF911F91EB
S11319000F910895FA01AA27283051F1203181F16D
S1131910E8946F936E7F6E5F7F4F8F4F9F4FAF4FF3
S1131920B1E03ED0B4E03CD0670F781F891F9A1F06
S1131930A11D680F791F8A1F911DA11D6A0F711DBA
S1131940811D911DA11D20D009F468943F912AE0C6
S1131950269F11243019305D3193DEF6CF010895AE
S1131960462F4770405D4193B3E00FD0C9F7F6CFDF
S1131970462F4F70405D4A3318F0495D31FD4052A7
S1131980419302D0A9F7EACFB4E0A695979587953D
S113199077956795BA95C9F700976105710508951C
S11319A09B01AC010A2E06945795479537952795C8
S11319B0BA95C9F7620F731F841F951FA01D089560
S11319C02F923F924F925F926F927F928F929F924B
S11319D0AF92BF92CF92DF92EF92FF920F931F9339
S11319E0CF93DF93CDB7DEB7CA1BDB0B0FB6F894EA
S11319F0DEBF0FBECDBF09942A88398848885F842A
S1131A006E847D848C849B84AA84B984C884DF809A
S1131A10EE80FD800C811B81AA81B981CE0FD11D7E
S1131A200FB6F894DEBF0FBECDBFED010895F89454
S1051A30FFCFE2
S1131A327F100A00030001000100000100010001FF
S1131A420043434444454646474741414213D082FA
S1131A524160978A4117D59241BCA49B4154D0A4BA
S1131A6241379DAE4149FFB8416AFFC34100A7CF48
S1131A72410000DC41F614E94110F1F641257500FC
S1071A8225690000CE
S9030000FC
