S01700004763634170706C69636174696F6E322E737265635A
S113000013C037C036C035C034C033C032C031C06D
S113001030C02FC02EC02DC02CC02BC040C029C062
S113002028C027C026C0970311241FBECFE5D4E003
S1130030DEBFCDBF10E0A0E6B0E0E0E1FCE102C02D
S113004005900D92A63BB107D9F721E0A6EBB0E0ED
S113005001C01D92AD3EB207E1F710E0C4E1D0E06B
S113006003C02197FE01F4DAC331D107D1F755D289
S1130070CDCDC6CF14BAF89416B83E9A3D9A329AAA
S1130080359A339A379A369A789408951092710172
S11300901092680110926C0110926B0108951F92E6
S11300A00F920FB60F9211242F933F934F935F93A8
S11300B06F937F938F939F93AF93BF93EF93FF932C
S11300C08091A2018093A10185B18093A2019091B6
S11300D0A10180916000981708F0D2C09091A2010C
S11300E080916000981708F007C1CAC0E0917101BF
S11300F0F0E08091690190916A01EE0FFF1FE958C9
S1130100FE4F91838083E0917101F0E080919F0123
S11301109091A001EE0FFF1FE557FE4F918380835E
S11301201092A00110929F0180917101811108C069
S113013010926801809171018F5F80937101A0C05A
S113014080918B0190918C01E0917101F0E0EE0FB0
S1130150FF1FE557FE4F208131814091640050918B
S11301606500821B930B9C0122F422273327281B52
S1130170390B241735070CF0E3C080917701909177
S113018078014091690150916A0120916600841BB5
S1130190950BAC0122F444275527481B590B822F99
S11301A090E0481759070CF4DCC0CAC080E0E82F7F
S11301B0F0E0EE0FFF1FE557FE4F40815181209183
S11301C0750130917601240F351F30937601209309
S11301D075018F5F90917101891748F380917501C2
S11301E090917601909374018093730181E08093E0
S11301F07201E0917101F0E0EE0FFF1FE557FE4F31
S11302002081318130938C0120938B01E091710125
S1130210F0E0EE0FFF1FE958FE4F2081318130934B
S1130220780120937701809371011092680128C0AE
S11302302DDF26C02091690130916A0180916B0104
S113024090916C01821793078CF4809169019091CD
S11302506A0190936C0180936B011092A00110923B
S11302609F0110926801109271010AC08091680187
S11302708F5F80936801809168018A3008F006DFFF
S11302808091A201882309F475C08091A201809114
S11302909F019091A00101969093A00180939F01EA
S11302A020916601309167012F5F3F4F30936701C2
S11302B020936601809160004091A20190E0841B2C
S11302C09109AC0122F444275527481B590B80910E
S11302D06501841710F440936501283E334009F00A
S11302E04DC0109267011092660180916501809360
S11302F064011092650142C08091A2012091A10184
S113030090E0821B910990936A0180936901809126
S1130310690190916A0140916B0150916C012091A7
S11303206600841B950BAC0122F444275527481B17
S1130330590B822F90E0481759070CF4D7CE7ACF87
S1130340809171018F5F809371018091710120917F
S113035062003091630090E0281739070CF090CFC9
S113036067CF10927601109275018091710181110D
S11303701DCF34CF81E08093A30189CFFF91EF910A
S1130380BF91AF919F918F917F916F915F914F91A9
S11303903F912F910F900FBE0F901F9018958F9241
S11303A09F92AF92BF92CF92DF92EF92FF920F9300
S11303B01F93CF93DF936C017B0116161706D4F4B9
S11303C08C01C0E0D0E0812C912C5401C114D104E3
S11303D051F0F8012081318142815381C501B4017A
S11303E0A7D64B015C0121960C5F1F4FEC16FD064E
S11303F069F703C0812C912C5401B701FF0C880BC1
S1130400990B99D79B01AC01C501B401F9D6DF91D1
S1130410CF911F910F91FF90EF90DF90CF90BF90FD
S1130420AF909F908F9008954F925F926F927F92BA
S11304308F929F92AF92BF92CF92DF92EF92FF92F0
S11304400F931F93CF93DF936B01161617060CF0CF
S113045048C0EC018B01000F111F000F111F080F82
S1130460191F7C01412C512C3201F701219131914A
S1130470419151917F01C301B2015AD62B013C0134
S1130480E016F10691F71BC06991799189919991D0
S1130490A30192014CD69B01AC0120D89B01AC0175
S11304A0C701B60145D66B017C01C017D10761F7BE
S11304B0A5019401C701B601A3D677D81DC0B60122
S11304C0DD0C880B990B37D74B015C019B01AC0108
S11304D0C301B20195D62B013C01C12CD12C76016C
S11304E0D3CF072E000C880B990B25D74B015C0149
S11304F0C12CD12C7601DCCFDF91CF911F910F91CC
S1130500FF90EF90DF90CF90BF90AF909F908F902F
S11305107F906F905F904F900895ACDD83E390E0FF
S1130520AFD581E6B4D58091640190E0D0D580E266
S1130530AED59091640180916100891708F0F0C0F4
S113054080917201882309F4EBC0109272016091CA
S113055073017091740180E090E0EBD69B01AC01D3
S113056060E076E988E197E44BD660936D0170937F
S11305706E0180936F019093700160916D01709191
S11305806E0180916F019091700166D3882309F404
S1130590C7C08091E8009091E9009C012F5F3F4F14
S11305A03093E9002093E80040916D0150916E0171
S11305B060916F0170917001880F991F880F991FC6
S11305C0FC01E651FF4F40835183628373832E31D4
S11305D0310524F01092E9001092E8006EE170E019
S11305E08AEE90E0DCDE6B017C0120916D0130919C
S11305F06E0140916F015091700199D569D69B01AC
S1130600772324F422273327261B370BB901330F12
S1130610880B990B90D64B015C012DEC3CEC4CE41F
S11306205EE3C701B6015AD79B01AC01C501B40111
S1130630E3D588232CF58091B6009091B7009C01F6
S11306402F5F3F4F3093B7002093B60040916D0168
S113065050916E0160916F0170917001880F991F24
S1130660880F991FFC01E854FF4F40835183628334
S113067073832C30310524F01092B7001092B60029
S11306806CE070E088EB90E08ADE6B017C01AB01EA
S1130690BC018EED91E0FED28091EC01882339F00B
S11306A0A70196016EED71E084EA91E097D26EE1C4
S11306B070E08AEE90E0B8DE20E030E048EC52E4EE
S11306C00DD706D6CB0103D580E2E1D460916D014C
S11306D070916E0180916F019091700120E030E083
S11306E048EC52E4FBD6F4D5CB01F1D480E2CFD46C
S11306F020E030E048EC52E4C701B601EFD6E8D57B
S1130700CB01E5D480E2C3D480916201909163016E
S1130710DED480E2BCD406D510926301109262014B
S11307208FE493EC0197F1F700C00000FCCE109227
S1130730EC01E4EAF1E01182108212820895FC01D6
S1130740808191818617970799F012BA11821082DD
S113075060FD919A61FD949A62FD959A63FD969A63
S113076064FD929A65FD939A66FD909A7183608305
S11307700895662311F0979A01C09798FC0162834B
S113078008954F925F926F927F928F929F92AF9251
S1130790BF92CF92DF92EF92FF92CF93DF93EC015F
S11307A04A015B012AE037ED43EA5DE3C501B40188
S11307B095D62B013C016EA77FA788AB99AB2AE99C
S11307C039E949E15EE3C501B40188D66B017C01D6
S11307D06AAB7BAB8CAB9DAB23E333E343EB5EE3D0
S11307E0C501B4017BD64B015C016EAB7FAB88AF16
S11307F099AFA301920160E070E084E892EC00D527
S11308006E8B7F8B888F998F80E090E0A0EFB2E4AD
S11308108AA39BA3ACA3BDA3A3019201C701B60104
S113082086D49B01AC0160E070E080E192ECE8D4F6
S11308309B01AC016A8F7B8F8C8F9D8FC701B601A2
S11308404DD69B01AC0160E070E080E991E46FD487
S11308506EA37FA388A799A7A7019601C501B40138
S113086066D49B01AC0160E070E080E991ECC8D4EF
S11308709B01AC016E8F7F8F88A399A3C501B4013E
S11308802DD69B01AC0160E070E0CB0150D46AA787
S11308907BA78CA79DA7DF91CF91FF90EF90DF906E
S11308A0CF90BF90AF909F908F907F906F905F900C
S11308B04F9008958F929F92AF92BF92CF92DF9202
S11308C0EF92FF920F931F93CF93DF93EC016A0192
S11308D07B01B901A80155DF20E030E0A901C7017F
S11308E0B6018AD488230CF44FC08EA89FA8A8AC64
S11308F0B9ACA5019401C701B601ECD518160CF4E6
S113090046C02EA53FA548A959A9C701B60174D46C
S11309101816B4F42AA93BA94CA95DA9C701B601CC
S11309206BD4181654F4A5019401C701B60164D41C
S113093018164CF002E010E008C001E010E005C019
S113094000E010E002C003E010E0F8013196EE0F81
S1130950FF1FEE0FFF1FEC0FFD1F2289338944890F
S11309605589C701B601BAD50C5F1F4F000F111F7F
S1130970000F111FC00FD11F2A893B894C895D8943
S1130980D7D3A6D4CB0105C088E790E002C080E0AD
S113099090E0DF91CF911F910F91FF90EF90DF9046
S11309A0CF90BF90AF909F908F9008952F923F92D9
S11309B04F925F926F927F928F929F92AF92BF926B
S11309C0CF92DF92EF92FF920F931F93CF93DF9317
S11309D0CDB7DEB76C970FB6F894DEBF0FBECDBFB0
S11309E01C018B012D8B3E8B4F8B588FDB01169690
S11309F08D919D910D90BC91A02D898F9A8FAB8F75
S1130A00BC8FFB0182849384A484B5849C01AD01D2
S1130A10C501B4018CD36B017C01D80112964D90B1
S1130A205D906D907C901597298D3A8D4B8D5C8DE2
S1130A306D897E898F89988D7AD39B01AC01C7011A
S1130A40B601B4D469837A838B839C83298D3A8DD0
S1130A504B8D5C8DC301B2016AD320E030E040E0ED
S1130A605FE33CD59B01AC01C301B20160D39B01A0
S1130A70AC016D897E898F89988D59D329D49B01C6
S1130A80772324F422273327261B370BB901330F8E
S1130A90880B990B50D49B01AC01C701B60186D4D5
S1130AA06D837E838F839887A30192016D897E89EC
S1130AB08F89988D3CD30CD49B01772324F422276F
S1130AC03327261B370BB901330F880B990B33D40B
S1130AD09B01AC01C701B60169D469877A878B870A
S1130AE09C87A3019201C501B40121D320E030E029
S1130AF040E05FE3F3D4A30192011AD32D893E8928
S1130B004F89588D14D3E4D39B01772324F42227EF
S1130B103327261B370BB901330F880B990B0BD4E2
S1130B209B01AC01C701B60141D46D877E878F87D5
S1130B30988B2D893E894F89588DC501B401F7D210
S1130B409B01AC01C701B60131D4698B7A8B8B8BC5
S1130B509C8BFE0131963F014101AA24A394B12C40
S1130B6006C0FFEFAF1ABF0A83E0880E911CD301C1
S1130B704D915D916D917D913D0197018601C1017A
S1130B8099DEB3E0AB16B10439F0F4018383F5E0E8
S1130B90AF16B10434F304C0D1011A968C93E1CF9B
S1130BA06FE070E0C10103963DD26C960FB6F894E5
S1130BB0DEBF0FBECDBFDF91CF911F910F91FF908C
S1130BC0EF90DF90CF90BF90AF909F908F907F90E9
S1130BD06F905F904F903F902F900895CF92DF9247
S1130BE0EF92FF920F931F93CF93DF93EC018B014E
S1130BF069017A01FB018081843481F028F4823414
S1130C0049F0833449F012C0863461F048F08734E7
S1130C1059F00CC069E70BC062E709C06DE307C077
S1130C2063E705C063E603C06AE701C06FE670E0EE
S1130C30CE0185DDF8016181CE019BDDA70196011E
S1130C40B801CE01B3DEDF91CF911F910F91FF90D8
S1130C50EF90DF90CF900895CF92DF92EF92FF92C2
S1130C606B017C012BE938E44EE751E433D488234B
S1130C705CF022E538E44EEF53E4C701B601BCD280
S1130C80881F8827881F01C080E0FF90EF90DF90C5
S1130C90CF9008952F923F924F925F926F927F92DE
S1130CA08F929F92AF92BF92CF92DF92EF92FF9278
S1130CB00F931F93CF93DF93CDB7DEB72C970FB667
S1130CC0F894DEBF0FBECDBF9E838D8349835A83C4
S1130CD06B837C832BE938E44EE751E469817A81A4
S1130CE08B819C81F7D388230CF4F9C022E538E486
S1130CF04EEF53E469817A818B819C817DD2882374
S1130D000CF0EDC0F0C00F2EC12CD12CF0E8EF2E6A
S1130D10FFE3FF2EF02DA7019601C701B60108D20B
S1130D206B017C012BE938E44EEF51E4D7D34B013E
S1130D305C019B01AC0169817A818B819C81CAD35E
S1130D4018164CF38F829886A986BA86E8C01C01CF
S1130D50510181E0A81AB108AB85BC856D917D91E4
S1130D608D919D91BC87AB87A7019601B7D39B0159
S1130D70AC0169817A818B819C81D9D1A9D29B01F3
S1130D80772324F422273327261B370BB901330F8B
S1130D90880B990BD0D2962E072F182F892E272D2A
S1130DA0342D452D562D28D2882354F4C1010196A3
S1130DB0792C402E512E682C8C30910541F601C0BF
S1130DC01501F101ED58FF4F8081ED81FE81808393
S1130DD0F101E959FF4F8081AD81BE8111968C9359
S1130DE0F101EE0FFF1FEE0FFF1FE158FF4F2081AF
S1130DF0318142815381C701B60170D32B013C017B
S1130E00ED81FE81628373838483958381E0868789
S1130E10FBE02F16310459F48F819885A985BA8592
S1130E20ED81FE8182879387A487B58732C0F10163
S1130E30EE0FFF1FEE0FFF1FED57FF4F2081318193
S1130E4042815381C701B60149D3A30192016FD1F5
S1130E5020E030E040E05FE341D3A301920168D198
S1130E60AD81BE811A966D937D938D939C931D974E
S1130E702114310471F42BE938E44EE751E4C7013D
S1130E80B6012CD3ED81FE816683778380879187B9
S1130E90B0C0F101EE0FFF1FEE0FFF1FE558FF4F2B
S1130EA02081318142815381C701B60117D39B014F
S1130EB0AC01C301B2013BD120E030E040E05FE38C
S1130EC00DD39B01AC01C301B20131D1AD81BE810F
S1130ED016966D937D938D939C9319978AC0ED819B
S1130EE0FE81168686C02BE938E44EEF51E4698111
S1130EF07A818B819C81EED218160CF404CF8BE995
S1130F0098E4AEEFB1E48F839887A987BA870F2E50
S1130F10C12CD12CF0E8EF2EFFE3FF2EF02D23E1BE
S1130F2030ED42E851E4C701B601D8D29B01AC01CF
S1130F3069817A818B819C81FAD0CAD19B01772304
S1130F4024F422273327261B370BB901330F880BD0
S1130F50990BF1D1762E472E582E692E22E538E4CE
S1130F604EEF53E449D1882344F4A3E8B0E02224AB
S1130F702394312CBC87AB87EBCE80917200ED813A
S1130F80FE81808380916600818320917B00309173
S1130F907C0040917D0050917E00C701B6019ED235
S1130FA02B013C01AD81BE8112966D937D938D938F
S1130FB09C93159781E01E968C9323E130ED42E8D3
S1130FC051E4C701B6018AD2A3019201B0D020E056
S1130FD030E040E05FE382D2A3019201A9D0ED8129
S1130FE0FE81628773878487958722242A94322C12
S1130FF050CF2C960FB6F894DEBF0FBECDBFDF9155
S1131000CF911F910F91FF90EF90DF90CF90BF9001
S1131010AF909F908F907F906F905F904F903F9094
S11310202F900895B99A28B32D7F38B332604FB703
S1131030F8946115710509F421C0FC01680F791F4A
S1131040919188E038BB97FF28BB990F000000C03E
S113105028BB000000C000C000C000C000C000C029
S113106000C000C000C000C000C000C000C000C07C
S113107000C08A9539F7E617F70711F74FBF0895AF
S113108090BD89B988E18AB98EE880BD08955D9BD9
S1131090FECF8CB908950F931F93CF93DF93FC0178
S11310A001900020E9F73197E81BF90B1E161F0683
S11310B04CF4EC018C010E0F1F1F8991E8DFC0175F
S11310C0D107D9F7DF91CF911F910F9108950F9315
S11310D01F93CF93DF93CDB7DEB76E970FB6F89417
S11310E0DEBF0FBECDBF9F938F9382EB90E09F93A3
S11310F08F938E010F5F1F4F1F930F93AFD2C801C1
S1131100CADF0F900F900F900F900F900F906E9674
S11311100FB6F894DEBF0FBECDBFDF91CF911F9104
S11311200F9108958DE0B3DF8AE0B1DF0895505840
S1131130BB27AA270ED094C185D130F08AD120F0E4
S113114031F49F3F11F41EF47AC10EF4E095E7FBED
S113115070C1E92F96D180F3BA1762077307840729
S1131160950718F071F49EF5AEC10EF4E0950B2EC0
S1131170BA2FA02D0B01B90190010C01CA01A001E5
S11311801124FF27591B99F0593F50F4503E68F140
S11311901A16F040A22F232F342F4427585FF3CF81
S11311A0469537952795A795F0405395C9F77EF452
S11311B01F16BA0B620B730B840BBAF09150A1F09B
S11311C0FF0FBB1F661F771F881FC2F70EC0BA0F21
S11311D0621F731F841F48F4879577956795B795A9
S11311E0F7959E3F08F0B3CF9395880F08F09927A1
S11311F0EE0F979587950895F8D008F481E0089547
S11312000CD02EC126D140F01DD130F021F45F3F27
S113121019F00FC1511158C112C133D198F3992358
S1131220C9F35523B1F3951B550BBB27AA276217A6
S11312307307840738F09F5F5F4F220F331F441FEB
S1131240AA1FA9F333D00E2E3AF0E0E830D0915023
S11312505040E695001CCAF729D0FE2F27D0660F10
S1131260771F881FBB1F261737074807AB07B0E84F
S113127009F0BB0B802DBF01FF2793585F4F2AF065
S11312809E3F510568F0D5C01FC15F3FECF3983E07
S1131290DCF3869577956795B795F7959F5FC9F7C2
S11312A0880F911D9695879597F90895E1E0660F4B
S11312B0771F881FBB1F621773078407BA0720F0C4
S11312C0621B730B840BBA0BEE1F88F7E09508952D
S11312D004D06894B111F8C00895DBD088F09F570A
S11312E090F0B92F9927B751A0F0D1F0660F771F6E
S11312F0881F991F1AF0BA95C9F712C0B13081F04E
S1131300E2D0B1E00895DFC0672F782F8827B85F57
S113131039F0B93FCCF3869577956795B395D9F7AE
S11313203EF490958095709561957F4F8F4F9F4FB8
S11313300895E89409C097FB3EF4909580957095C4
S113134061957F4F8F4F9F4F9923A9F0F92F96E90D
S1131350BB279395F695879577956795B795F11182
S1131360F8CFFAF4BB0F11F460FF1BC06F5F7F4F1F
S11313708F4F9F4F16C0882311F096E911C0772331
S113138021F09EE8872F762F05C0662371F096E83A
S1131390862F70E060E02AF09A95660F771F881F09
S11313A0DAF7880F9695879597F90895990FBB0BEF
S11313B0550FAA0BE0E8FEEF16161706E807F90723
S11313C070F012161306E407F50760F0BA1754F02C
S11313D031F42617370748075907A7951BF4B901B5
S11313E0CA01BA2FB69597950895990F0008550F1D
S11313F0AA0BE0E8FEEF16161706E807F907C0F097
S113140012161306E407F50798F0621B730B840B9E
S1131410950B39F40A2661F0232B242B252B21F478
S113142008950A2609F4A140A6958FEF811D811D18
S1131430089597F99F6780E870E060E008959FEF52
S113144080EC089500240A94161617061806090657
S1131450089500240A941216130614060506089526
S1131460092E0394000C11F4882352F0BB0F40F4AE
S1131470BF2B11F460FF04C06F5F7F4F8F4F9F4FEE
S1131480089557FD9058440F551F59F05F3F71F070
S11314904795880F97FB991F61F09F3F79F08795D7
S11314A00895121613061406551FF2CF4695F1DF60
S11314B008C0161617061806991FF1CF86957105F0
S11314C0610508940895E894BB2766277727CB0124
S11314D097F908958ADF08F48FEF08950BD0C0CFF1
S11314E0B1DF28F0B6DF18F0952309F0A2CFA7CF1B
S11314F01124EACFC6DFA0F3959FD1F3950F50E0F6
S1131500551F629FF001729FBB27F00DB11D639FB1
S1131510AA27F00DB11DAA1F649F6627B00DA11D57
S1131520661F829F2227B00DA11D621F739FB00DFD
S1131530A11D621F839FA00D611D221F749F33276D
S1131540A00D611D231F849F600D211D822F762F06
S11315506A2F11249F5750408AF0E1F088234AF003
S1131560EE0FFF1FBB1F661F771F881F915050404F
S1131570A9F79E3F510570F05CCFA6CF5F3FECF317
S1131580983EDCF3869577956795B795F795E7953B
S11315909F5FC1F7FE2B880F911D9695879597F94C
S11315A0089511F40EF44BCF3EC073DFD0F39923AA
S11315B0D9F3CEF39F57550B87FF43D00024A0E601
S11315C040EA900180585695979528F4805C660F00
S11315D0771F881F20F026173707480730F4621B4F
S11315E0730B840B202931294A2BA6951794079451
S11315F0202531254A2758F7660F771F881F20F0CA
S113160026173707480730F4620B730B840B200D41
S1131610311D411DA09581F7B901842F9158880F80
S11316209695879508959F3F31F0915020F48795C2
S113163077956795B795880F911D9695879597F936
S1131640089591505040660F771F881FD2F7089570
S1131650EE0FFF1F0590F491E02D0994AEE0B0E089
S1131660E3E3FBE0AAC20D891E8986E08C831A831A
S113167009838FEF9FE79E838D83AE01475E5F4FA3
S11316806F89788DCE01019608D0EF81F885E00F3F
S1131690F11F10822E96E4E0ACC2ABE0B0E0E2E5CC
S11316A0FBE07DC26C017B018A01FC01178216827A
S11316B0838181FFBFC1CE0101963C01F601938174
S11316C0F70193FD859193FF81917F01882309F4AC
S11316D0ADC1853239F493FD859193FF81917F01EA
S11316E0853221F4B60190E0C0D1E8CF912C212CB1
S11316F0312CFFE1F315D8F08B3279F038F48032D5
S113170079F08332A1F4232D20611DC08D3261F064
S1131710803369F4232D216016C0832D8260382E16
S1131720E32DE4603E2E2AC0F32DF8601DC037FC83
S11317302DC020ED280F2A3040F08E32B9F436FC4B
S113174075C1232D2064322E19C036FE06C08AE0EE
S1131750989E200D1124922E11C0EAE02E9E200D99
S11317601124222EF32DF0623F2E08C08C3621F472
S1131770832D8068382E02C0883641F4F70193FD2A
S1131780859193FF81917F018111B3CF982F9F7D24
S11317909554933028F40C5F1F4F9FE399830DC039
S11317A0833631F0833771F0833509F055C020C09A
S11317B0F801808189830E5F1F4F88248394912CC4
S11317C0530112C02801F2E04F0E511CF801A08011
S11317D0B18036FE03C0692D70E002C06FEF7FEF69
S11317E0C50138D14C018201F32DFF773F2E15C07E
S11317F0280122E0420E511CF801A080B18036FE7F
S113180003C0692D70E002C06FEF7FEFC50117D1EF
S11318104C01F32DF0683F2E820133FC19C0822D58
S113182090E088169906A0F4B60180E290E01DD1FC
S11318302A94F5CFF50137FC859137FE81915F013C
S1131840B60190E012D121102A9421E0821A910865
S11318508114910479F7E1C0843611F0893639F5A1
S1131860F80137FE07C060817181828193810C5F2A
S11318701F4F08C060817181072E000C880B990BE3
S11318800E5F1F4FF32DFF763F2E97FF09C09095F3
S11318908095709561957F4F8F4F9F4FF0683F2ED5
S11318A02AE030E0A3011DD1882E861844C0853774
S11318B031F4232D2F7EB22E2AE030E025C0932D63
S11318C0997FB92E8F36C1F018F4883579F0AEC0FF
S11318D0803719F0883721F0A9C0E92FE061BE2EC6
S11318E0B4FE0DC0FB2DF460BF2E09C034FE0AC047
S11318F0292F2660B22E06C028E030E005C020E182
S113190030E002C020E132E0F801B7FE07C0608198
S11319107181828193810C5F1F4F06C06081718148
S113192080E090E00E5F1F4FA301DBD0882E861865
S1131930FB2DFF773F2E36FE0DC0232D2E7FA22ECA
S1131940891458F434FE0BC032FC09C0832D8E7EFA
S1131950A82E05C0B82CA32C03C0B82C01C0B92CE8
S1131960A4FE0FC0FE01E80DF11D8081803321F437
S11319709A2D997EA92E09C0A2FE06C0B394B394F1
S113198004C08A2D867809F0B394A3FC10C0A0FE8D
S113199006C0B21480F4280C922C9B180DC0B2140B
S11319A058F4B60180E290E060D0B394F8CFB2145A
S11319B018F42B1802C0982C212CA4FE0FC0B601D9
S11319C080E390E052D0A2FE16C0A1FC03C088E7D9
S11319D090E002C088E590E0B6010CC08A2D8678BC
S11319E051F0A1FE02C08BE201C080E2A7FC8DE2AF
S11319F0B60190E03AD0891430F4B60180E390E067
S1131A0034D09A94F8CF8A94F301E80DF11D8081C3
S1131A10B60190E02AD08110F6CF222009F44ECEF0
S1131A20B60180E290E021D02A94F7CFF6018681B6
S1131A30978102C08FEF9FEF2B96E2E1CCC0FC01AF
S1131A400590615070400110D8F7809590958E0FE5
S1131A509F1F0895FC016150704001900110D8F758
S1131A60809590958E0F9F1F08950F931F93CF938A
S1131A70DF93FB01238121FD03C08FEF9FEF2CC077
S1131A8022FF16C0468157812481358142175307AE
S1131A9044F4A081B1819D012F5F3F4F31832083A6
S1131AA08C93268137812F5F3F4F3783268314C061
S1131AB08B01EC01FB010084F185E02D0995892B54
S1131AC0E1F6D80116968D919C9117970196179679
S1131AD09C938E931697CE01DF91CF911F910F9116
S1131AE00895FA01AA27283051F1203181F1E894B0
S1131AF06F936E7F6E5F7F4F8F4F9F4FAF4FB1E0FD
S1131B003ED0B4E03CD0670F781F891F9A1FA11DF7
S1131B10680F791F8A1F911DA11D6A0F711D811DF8
S1131B20911DA11D20D009F468943F912AE0269FBD
S1131B3011243019305D3193DEF6CF010895462F1C
S1131B404770405D4193B3E00FD0C9F7F6CF462FFD
S1131B504F70405D4A3318F0495D31FD4052419366
S1131B6002D0A9F7EACFB4E0A69597958795779523
S1131B706795BA95C9F700976105710508959B01AA
S1131B80AC010A2E06945795479537952795BA9533
S1131B90C9F7620F731F841F951FA01D08952F920C
S1131BA03F924F925F926F927F928F929F92AF92E9
S1131BB0BF92CF92DF92EF92FF920F931F93CF9336
S1131BC0DF93CDB7DEB7CA1BDB0B0FB6F894DEBFCD
S1131BD00FBECDBF09942A88398848885F846E84F3
S1131BE07D848C849B84AA84B984C884DF80EE803D
S1131BF0FD800C811B81AA81B981CE0FD11D0FB646
S1131C00F894DEBF0FBECDBFED010895F894FFCF69
S1131C107F1009000A000300010001000001000117
S1131C20000100434344444546464747414142136B
S1131C30D0824160978A4117D59241BCA49B4154FC
S1131C40D0A441379DAE4149FFB8416AFFC341006A
S1131C50A7CF410000DC41F614E94110F1F641251B
S1091C6075002569000077
S9030000FC
