S01700004763634170706C69636174696F6E322E737265635A
S113000013C037C036C035C034C033C032C031C06D
S113001030C02FC02EC02DC02CC02BC040C029C062
S113002028C027C026C0D30211241FBECFE5D4E0C8
S1130030DEBFCDBF10E0A0E6B0E0EEE8F8E102C01C
S113004005900D92A03BB107D9F721E0A0EBB0E0F9
S113005001C01D92A73EB207E1F710E0C4E1D0E071
S113006003C02197FE0152D9C331D107D1F7DCD1A6
S11300700CCCC6CF14BAF89416B83E9A3D9A329A6C
S1130080359A339A379A369A7894089510926B0178
S113009010926201109266011092650108951F92F8
S11300A00F920FB60F9211242F933F934F935F93A8
S11300B06F937F938F939F93AF93BF93EF93FF932C
S11300C080919C0180939B0185B180939C019091C8
S11300D09B0180916000981708F0D2C090919C0118
S11300E080916000981708F007C1CAC0E0916B01C5
S11300F0F0E08091630190916401EE0FFF1FEF58CF
S1130100FE4F91838083E0916B01F0E0809199012F
S113011090919A01EE0FFF1FEB57FE4F918380835E
S113012010929A011092990180916B01811108C07B
S11301301092620180916B018F5F80936B01A0C06C
S11301408091850190918601E0916B01F0E0EE0FC2
S1130150FF1FEB57FE4F2081318140916400509185
S11301606500821B930B9C0122F422273327281B52
S1130170390B241735070CF0E3C08091710190917D
S11301807201409163015091640120916600841BC7
S1130190950BAC0122F444275527481B590B822F99
S11301A090E0481759070CF4DCC0CAC080E0E82F7F
S11301B0F0E0EE0FFF1FEB57FE4F4081518120917D
S11301C06F0130917001240F351F3093700120931B
S11301D06F018F5F90916B01891748F380916F01D4
S11301E09091700190936E0180936D0181E08093F2
S11301F06C01E0916B01F0E0EE0FFF1FEB57FE4F37
S1130200208131813093860120938501E0916B0137
S1130210F0E0EE0FFF1FEF58FE4F20813181309345
S113022072012093710180936B011092620128C0C6
S11302302DDF26C020916301309164018091650116
S113024090916601821793078CF4809163019091D9
S11302506401909366018093650110929A01109253
S113026099011092620110926B010AC0809162019F
S11302708F5F80936201809162018A3008F006DF0B
S113028080919C01882309F475C080919C01809120
S1130290990190919A01019690939A018093990102
S11302A020916001309161012F5F3F4F30936101D4
S11302B0209360018091600040919C0190E0841B38
S11302C09109AC0122F444275527481B590B80910E
S11302D05F01841710F440935F01283E334009F016
S11302E04DC0109261011092600180915F01809372
S11302F05E0110925F0142C080919C0120919B019C
S113030090E0821B91099093640180936301809132
S113031063019091640140916501509166012091BF
S11303206600841B950BAC0122F444275527481B17
S1130330590B822F90E0481759070CF4D7CE7ACF87
S113034080916B018F5F80936B0180916B01209191
S113035062003091630090E0281739070CF090CFC9
S113036067CF1092700110926F0180916B0181111F
S11303701DCF34CF81E080939D0189CFFF91EF9110
S1130380BF91AF919F918F917F916F915F914F91A9
S11303903F912F910F900FBE0F901F9018958F9241
S11303A09F92AF92BF92CF92DF92EF92FF920F9300
S11303B01F93CF93DF936C017B0116161706D4F4B9
S11303C08C01C0E0D0E0812C912C5401C114D104E3
S11303D051F0F8012081318142815381C501B4017A
S11303E05CD54B015C0121960C5F1F4FEC16FD069A
S11303F069F703C0812C912C5401B701FF0C880BC1
S1130400990B4ED69B01AC01C501B401AED5DF9169
S1130410CF911F910F91FF90EF90DF90CF90BF90FD
S1130420AF909F908F90089525DE90915E0180910A
S11304306100891708F0B0C080916C01882309F429
S1130440ABC010926C0160916D0170916E0180E0FF
S113045090E024D69B01AC0160E076E988E197E462
S113046084D56093670170936801809369019093C8
S11304706A016091670170916801809169019091AE
S11304806A010ED3882309F487C08091E200909119
S1130490E3009C012F5F3F4F3093E3002093E20081
S11304A040916701509168016091690170916A01FE
S11304B0880F991F880F991FFC01EC51FF4F40834F
S11304C05183628373832E31310524F01092E3004B
S11304D01092E2006EE170E084EE90E060DF4B0188
S11304E05C0120916701309168014091690150914C
S11304F06A01D2D46B017C01E894F7F82DEC3CEC52
S11305004CE45EE3C501B4019ED69B01AC01C70176
S1130510B60127D588232CF58091B0009091B100C5
S11305209C012F5F3F4F3093B1002093B000409166
S11305306701509168016091690170916A01880FA7
S1130540991F880F991FFC01EE54FF4F408351837C
S1130550628373832C30310524F01092B100109221
S1130560B0006CE070E082EB90E019DF6B017C017D
S1130570AB01BC0188ED91E0B1D28091E601882302
S113058039F0A701960168ED71E08EE991E04AD255
S113059010925D0110925C018FE493EC0197F1F7E6
S11305A000C0000042CF1092E601EEE9F1E01182B2
S11305B0108212820895FC01808191818617970729
S11305C099F012BA1182108260FD919A61FD949A99
S11305D062FD959A63FD969A64FD929A65FD939ADD
S11305E066FD909A718360830895662311F0979A4B
S11305F001C09798FC01628308954F925F926F92B5
S11306007F928F929F92AF92BF92CF92DF92EF929E
S1130610FF92CF93DF93EC014A015B012BE734E1B6
S11306204EEA5DE3C501B4010ED62B013C016EA771
S11306307FA788AB99AB2AE939E949E15EE3C501B3
S1130640B40101D66B017C016AAB7BAB8CAB9DAB77
S113065023E333E343EB5EE3C501B401F4D54B017B
S11306605C016EAB7FAB88AF99AFA301920160E0F0
S113067070E080E792EC79D46E8B7F8B888F998FB2
S113068080E090E0A0EFB2E48AA39BA3ACA3BDA357
S1130690A3019201C701B601FFD39B01AC0160E045
S11306A070E080E192EC61D49B01AC016A8F7B8F96
S11306B08C8F9D8FC701B601C6D59B01AC0160E04C
S11306C070E080EC91E4E8D36EA37FA388A799A798
S11306D0A7019601C501B401DFD39B01AC0160E021
S11306E070E080EC91EC41D49B01AC016E8F7F8F64
S11306F088A399A3C501B401A6D59B01AC0160E010
S113070070E0CB01C9D36AA77BA78CA79DA7DF9113
S1130710CF91FF90EF90DF90CF90BF90AF909F90DC
S11307208F907F906F905F904F9008958F929F92DB
S1130730AF92BF92CF92DF92EF92FF920F931F93EB
S1130740CF93DF93EC016A017B0148015901B901A0
S1130750A80153DF20E030E0A901C701B60101D4AC
S113076088230CF457C0A7019601C501B401F9D33D
S113077088230CF452C08EA89FA8A8ACB9ACA501DC
S11307809401C701B6015BD518160CF449C02EA517
S11307903FA548A959A9C701B601E3D31816B4F473
S11307A02AA93BA94CA95DA9C701B601DAD3181639
S11307B054F4A5019401C701B601D3D318164CF023
S11307C002E010E008C001E010E005C000E010E025
S11307D002C003E010E0F8013196EE0FFF1FEE0FA8
S11307E0FF1FEC0FFD1F2289338944895589C701F6
S11307F0B60129D50C5F1F4F000F111F000F111FE9
S1130800C00FD11F2A893B894C895D8946D315D4F1
S1130810CB0108C088E790E005C080E090E002C00A
S113082080E090E0DF91CF911F910F91FF90EF90C6
S1130830DF90CF90BF90AF909F908F9008952F92AC
S11308403F924F925F926F927F928F929F92AF925C
S1130850BF92CF92DF92EF92FF920F931F93CF93A9
S1130860DF93CDB7DEB76C970FB6F894DEBF0FBE3B
S1130870CDBF1C018B012D8B3E8B4F8B588FDB0121
S113088016964D905D906D907C9019971A968D9167
S11308909D910D90BC91A02D898F9A8FAB8FBC8FA9
S11308A0A3019201BC01CD01F7D26B017C01F801D7
S11308B082809380A480B580A30192016D897E8992
S11308C08F89988DE9D29B01AC01C701B60123D46D
S11308D069837A838B839C83A3019201C501B4014C
S11308E0DBD220E030E040E05FE3ADD49B01AC011B
S11308F0C501B401D1D29B01AC016D897E898F8978
S1130900988DCAD29B01AC015F77C701B60103D4AD
S11309106D837E838F839887A50194016D897E8979
S11309208F89988DB9D29B01AC015F77C701B6015D
S1130930F2D369877A878B879C87A5019401698D97
S11309407A8D8B8D9C8DA8D220E030E040E05FE36F
S11309507AD4A5019401A1D22D893E894F89588D5D
S11309609BD29B01AC015F77C701B601D4D36D87DD
S11309707E878F87988B2D893E894F89588D698D05
S11309807A8D8B8D9C8D88D29B01AC01C701B601F9
S1130990C2D3698B7A8B8B8B9C8BCE0101963C01E5
S11309A04101AA24A394B12C06C09FEFA91AB90A45
S11309B0A3E08A0E911CF3014191519161917191CF
S11309C03F0197018601C101B1DEF3E0AF16B10426
S11309D041F0D40113968C93B5E0AB16B1042CF31B
S11309E003C0F1018287E1CF6FE070E0C10103969B
S11309F025D26C960FB6F894DEBF0FBECDBFDF9143
S1130A00CF911F910F91FF90EF90DF90CF90BF9007
S1130A10AF909F908F907F906F905F904F903F909A
S1130A202F900895CF92DF92EF92FF920F931F932E
S1130A30CF93DF93EC018B0169017A01FB01808183
S1130A40843481F028F4823449F0833449F012C0AC
S1130A50863461F048F0873459F00CC069E70BC064
S1130A6062E709C06DE307C063E705C063E603C03E
S1130A706AE701C06FE670E0CE019DDDF801618197
S1130A80CE01B3DDA7019601B801CE01D8DEDF9116
S1130A90CF911F910F91FF90EF90DF90CF90089529
S1130AA0CF92DF92EF92FF926B017C012BE938E445
S1130AB04EE751E4C4D388235CF022E538E44EEFDA
S1130AC053E4C701B6014DD2881F8827881F01C08F
S1130AD080E0FF90EF90DF90CF9008952F923F92A7
S1130AE04F925F926F927F928F929F92AF92BF923A
S1130AF0CF92DF92EF92FF920F931F93CF93DF93E6
S1130B00CDB7DEB72C970FB6F894DEBF0FBECDBFBE
S1130B109E838D832A013B012BE938E44EE751E49F
S1130B20C301B2018CD388230CF4EFC022E538E46E
S1130B304EEF53E4C301B20114D288230CF0E5C094
S1130B40E8C00F2EC12CD12CF0E8EF2EFFE3FF2ECE
S1130B50F02DA7019601C701B6019FD16B017C015D
S1130B602BE938E44EEF51E46ED34B015C019B0159
S1130B70AC01C301B20163D318165CF38F8298866B
S1130B80A986BA86E0C09C878B872B843C8421E0AD
S1130B90221A3108D8016D917D918D919D918D011D
S1130BA0A701960150D39B01AC01C301B20174D1DA
S1130BB04B015C01E894B7F829813A814B815C814F
S1130BC0C501B401CED188235CF48B859C85019644
S1130BD089829A82AB82BC828C309105A1F602C0D4
S1130BE03C862B86EB85FC85ED58FF4F8081AD81DB
S1130BF0BE818C93EB85FC85E959FF4F808111966A
S1130C008C93EB85FC85EE0FFF1FEE0FFF1FE15861
S1130C10FF4F2081318142815381C701B60113D333
S1130C204B015C01ED81FE81628373838483958330
S1130C3081E086872B853C852B30310549F48F81F3
S1130C409885A985BA8582879387A487B58736C096
S1130C50EB85FC85EE0FFF1FEE0FFF1FED57FF4FD7
S1130C602081318142815381C701B601ECD2A501B3
S1130C70940112D120E030E040E05FE3E4D2A5012A
S1130C8094010BD1AD81BE811A966D937D938D93A2
S1130C909C931D97EB85FC85EF2B81F42BE938E4BD
S1130CA04EE751E4C701B601CED2AD81BE8116969E
S1130CB06D937D938D939C931997A7C0EB85FC85C9
S1130CC0EE0FFF1FEE0FFF1FE558FF4F208131810C
S1130CD042815381C701B601B6D29B01AC01C50163
S1130CE0B401DAD020E030E040E05FE3ACD29B0115
S1130CF0AC01C501B401D0D0AD81BE8116966D930F
S1130D007D938D939C93199780C0ED81FE81168607
S1130D107CC02BE938E44EEF51E4C301B2018FD219
S1130D2018160CF40ECF2BE938E44EEF51E42F8360
S1130D30388749875A870F2EC12CD12CF0E8EF2E23
S1130D40FFE3FF2EF02D23E130ED42E851E4C7012B
S1130D50B60179D29B01AC01C301B2019DD09B01C4
S1130D60AC015F7729833A834B835C8322E538E4C3
S1130D704EEF53E469817A818B819C81F2D0882380
S1130D803CF403E810E041E050E05C874B87FDCE83
S1130D9080917200AD81BE818C9380916600119622
S1130DA08C9320917B0030917C0040917D00509188
S1130DB07E00C701B60147D24B015C01ED81FE8183
S1130DC0628373838483958381E0868723E130ED96
S1130DD042E851E4C701B60136D2A50194015CD0C2
S1130DE020E030E040E05FE32ED2A501940155D02D
S1130DF0AD81BE811A966D937D938D939C931D97BF
S1130E00EFEFFFEFFC87EB8759CF2C960FB6F894E2
S1130E10DEBF0FBECDBFDF91CF911F910F91FF9029
S1130E20EF90DF90CF90BF90AF909F908F907F9086
S1130E306F905F904F903F902F900895B99A28B388
S1130E402D7F38B332604FB7F8946115710509F4FA
S1130E5021C0FC01680F791F919188E038BB97FF8E
S1130E6028BB990F000000C028BB000000C000C0D0
S1130E7000C000C000C000C000C000C000C000C06E
S1130E8000C000C000C000C000C08A9539F7E61752
S1130E90F70711F74FBF08955058BB27AA270ED064
S1130EA094C185D130F08AD120F031F49F3F11F400
S1130EB01EF47AC10EF4E095E7FB70C1E92F96D1D8
S1130EC080F3BA17620773078407950718F071F463
S1130ED09EF5AEC10EF4E0950B2EBA2FA02D0B019A
S1130EE0B90190010C01CA01A0011124FF27591B6B
S1130EF099F0593F50F4503E68F11A16F040A22F71
S1130F00232F342F4427585FF3CF469537952795E1
S1130F10A795F0405395C9F77EF41F16BA0B620BE0
S1130F20730B840BBAF09150A1F0FF0FBB1F661F27
S1130F30771F881FC2F70EC0BA0F621F731F841F6A
S1130F4048F4879577956795B795F7959E3F08F090
S1130F50B3CF9395880F08F09927EE0F979587954F
S1130F600895F8D008F481E008950CD02EC126D15C
S1130F7040F01DD130F021F45F3F19F00FC1511141
S1130F8058C112C133D198F39923C9F35523B1F34E
S1130F90951B550BBB27AA2762177307840738F0E4
S1130FA09F5F5F4F220F331F441FAA1FA9F333D043
S1130FB00E2E3AF0E0E830D091505040E695001CF7
S1130FC0CAF729D0FE2F27D0660F771F881FBB1FB3
S1130FD0261737074807AB07B0E809F0BB0B802D8D
S1130FE0BF01FF2793585F4F2AF09E3F510568F0D9
S1130FF0D5C01FC15F3FECF3983EDCF3869577952F
S11310006795B795F7959F5FC9F7880F911D9695DA
S1131010879597F90895E1E0660F771F881FBB1F36
S1131020621773078407BA0720F0621B730B840BE3
S1131030BA0BEE1F88F7E095089504D06894B111B7
S1131040F8C00895DBD088F09F5790F0B92F992706
S1131050B751A0F0D1F0660F771F881F991F1AF0BF
S1131060BA95C9F712C0B13081F0E2D0B1E0089569
S1131070DFC0672F782F8827B85F39F0B93FCCF3EA
S1131080869577956795B395D9F73EF490958095B5
S1131090709561957F4F8F4F9F4F0895E89409C0D5
S11310A097FB3EF490958095709561957F4F8F4F97
S11310B09F4F9923A9F0F92F96E9BB279395F695AD
S11310C0879577956795B795F111F8CFFAF4BB0F2B
S11310D011F460FF1BC06F5F7F4F8F4F9F4F16C08F
S11310E0882311F096E911C0772321F09EE8872F19
S11310F0762F05C0662371F096E8862F70E060E0D5
S11311002AF09A95660F771F881FDAF7880F96954D
S1131110879597F90895990FBB0B550FAA0BE0E833
S1131120FEEF16161706E807F90770F012161306F5
S1131130E407F50760F0BA1754F031F426173707BF
S113114048075907A7951BF4B901CA01BA2FB695E8
S113115097950895990F0008550FAA0BE0E8FEEF44
S113116016161706E807F907C0F012161306E40767
S1131170F50798F0621B730B840B950B39F40A2660
S113118061F0232B242B252B21F408950A2609F43E
S1131190A140A6958FEF811D811D089597F99F6742
S11311A080E870E060E008959FEF80EC08950024EB
S11311B00A941616170618060906089500240A94B8
S11311C012161306140605060895092E0394000C3E
S11311D011F4882352F0BB0F40F4BF2B11F460FFCD
S11311E004C06F5F7F4F8F4F9F4F089557FD9058F6
S11311F0440F551F59F05F3F71F04795880F97FBD7
S1131200991F61F09F3F79F0879508951216130690
S11312101406551FF2CF4695F1DF08C016161706BF
S11312201806991FF1CF86957105610508940895F4
S1131230E894BB2766277727CB0197F908958ADFBF
S113124008F48FEF08950BD0C0CFB1DF28F0B6DFDC
S113125018F0952309F0A2CFA7CF1124EACFC6DF57
S1131260A0F3959FD1F3950F50E0551F629FF001B5
S1131270729FBB27F00DB11D639FAA27F00DB11D0E
S1131280AA1F649F6627B00DA11D661F829F222797
S1131290B00DA11D621F739FB00DA11D621F839F1E
S11312A0A00D611D221F749F3327A00D611D231FF4
S11312B0849F600D211D822F762F6A2F11249F5742
S11312C050408AF0E1F088234AF0EE0FFF1FBB1F65
S11312D0661F771F881F91505040A9F79E3F510504
S11312E070F05CCFA6CF5F3FECF3983EDCF38695BD
S11312F077956795B795F795E7959F5FC1F7FE2BAF
S1131300880F911D9695879597F90895EE0FFF1F05
S11313100590F491E02D0994ABE0B0E0E1E9F9E047
S11313207DC26C017B018A01FC01178216828381D4
S113133081FFBFC1CE0101963C01F6019381F70103
S113134093FD859193FF81917F01882309F4ADC1B9
S1131350853239F493FD859193FF81917F01853224
S113136021F4B60190E0C0D1E8CF912C212C312C8E
S1131370FFE1F315D8F08B3279F038F4803279F04C
S11313808332A1F4232D20611DC08D3261F080339E
S113139069F4232D216016C0832D8260382EE32D3D
S11313A0E4603E2E2AC0F32DF8601DC037FC2DC02A
S11313B020ED280F2A3040F08E32B9F436FC75C186
S11313C0232D2064322E19C036FE06C08AE0989E72
S11313D0200D1124922E11C0EAE02E9E200D11241E
S11313E0222EF32DF0623F2E08C08C3621F4832D7B
S11313F08068382E02C0883641F4F70193FD859148
S113140093FF81917F018111B3CF982F9F7D9554D4
S1131410933028F40C5F1F4F9FE399830DC08336EC
S113142031F0833771F0833509F055C020C0F801DD
S1131430808189830E5F1F4F88248394912C5301EC
S113144012C02801F2E04F0E511CF801A080B180B7
S113145036FE03C0692D70E002C06FEF7FEFC50157
S113146038D14C018201F32DFF773F2E15C028019E
S113147022E0420E511CF801A080B18036FE03C068
S1131480692D70E002C06FEF7FEFC50117D14C01E9
S1131490F32DF0683F2E820133FC19C0822D90E0B9
S11314A088169906A0F4B60180E290E01DD12A9432
S11314B0F5CFF50137FC859137FE81915F01B601C7
S11314C090E012D121102A9421E0821A910881140B
S11314D0910479F7E1C0843611F0893639F5F801C1
S11314E037FE07C060817181828193810C5F1F4F39
S11314F008C060817181072E000C880B990B0E5F68
S11315001F4FF32DFF763F2E97FF09C090958095CE
S1131510709561957F4F8F4F9F4FF0683F2E2AE063
S113152030E0A3011DD1882E861844C0853731F4DC
S1131530232D2F7EB22E2AE030E025C0932D997FF3
S1131540B92E8F36C1F018F4883579F0AEC08037E3
S113155019F0883721F0A9C0E92FE061BE2EB4FE4E
S11315600DC0FB2DF460BF2E09C034FE0AC0292F24
S11315702660B22E06C028E030E005C020E130E04D
S113158002C020E132E0F801B7FE07C0608171813A
S1131590828193810C5F1F4F06C06081718180E05E
S11315A090E00E5F1F4FA301DBD0882E8618FB2D21
S11315B0FF773F2E36FE0DC0232D2E7FA22E8914D9
S11315C058F434FE0BC032FC09C0832D8E7EA82E45
S11315D005C0B82CA32C03C0B82C01C0B92CA4FEA0
S11315E00FC0FE01E80DF11D8081803321F49A2D96
S11315F0997EA92E09C0A2FE06C0B394B39404C078
S11316008A2D867809F0B394A3FC10C0A0FE06C00E
S1131610B21480F4280C922C9B180DC0B21458F408
S1131620B60180E290E060D0B394F8CFB21418F41D
S11316302B1802C0982C212CA4FE0FC0B60180E305
S113164090E052D0A2FE16C0A1FC03C088E790E04F
S113165002C088E590E0B6010CC08A2D867851F06E
S1131660A1FE02C08BE201C080E2A7FC8DE2B601BC
S113167090E03AD0891430F4B60180E390E034D09D
S11316809A94F8CF8A94F301E80DF11D8081B60194
S113169090E02AD08110F6CF222009F44ECEB60174
S11316A080E290E021D02A94F7CFF60186819781D9
S11316B002C08FEF9FEF2B96E2E1CCC0FC010590B6
S11316C0615070400110D8F7809590958E0F9F1F40
S11316D00895FC016150704001900110D8F7809585
S11316E090958E0F9F1F08950F931F93CF93DF93B1
S11316F0FB01238121FD03C08FEF9FEF2CC022FF4C
S113170016C046815781248135814217530744F41A
S1131710A081B1819D012F5F3F4F318320838C9342
S1131720268137812F5F3F4F3783268314C08B0177
S1131730EC01FB010084F185E02D0995892BE1F68C
S1131740D80116968D919C911797019617969C93A4
S11317508E931697CE01DF91CF911F910F9108952B
S1131760FA01AA27283051F1203181F1E8946F93CE
S11317706E7F6E5F7F4F8F4F9F4FAF4FB1E03ED074
S1131780B4E03CD0670F781F891F9A1FA11D680F12
S1131790791F8A1F911DA11D6A0F711D811D911D45
S11317A0A11D20D009F468943F912AE0269F1124BA
S11317B03019305D3193DEF6CF010895462F47701E
S11317C0405D4193B3E00FD0C9F7F6CF462F4F7079
S11317D0405D4A3318F0495D31FD4052419302D0D7
S11317E0A9F7EACFB4E0A69597958795779567957D
S11317F0BA95C9F700976105710508959B01AC017D
S11318000A2E06945795479537952795BA95C9F7A3
S1131810620F731F841F951FA01D08952F923F927E
S11318204F925F926F927F928F929F92AF92BF92EC
S1131830CF92DF92EF92FF920F931F93CF93DF9398
S1131840CDB7DEB7CA1BDB0B0FB6F894DEBF0FBEF5
S1131850CDBF09942A88398848885F846E847D8442
S11318608C849B84AA84B984C884DF80EE80FD8044
S11318700C811B81AA81B981CE0FD11D0FB6F894BA
S1111880DEBF0FBECDBFED010895F894FFCF7B
S113188E7F0D09000A0003000100010000010001A0
S113189E00010043434444454646474741414213F1
S11318AED0824160978A4117D59241BCA49B415482
S11318BED0A441379DAE4149FFB8416AFFC34100F0
S11318CEA7CF410000DC41F614E94110F1F64100C6
S9030000FC
