S01700004763634170706C69636174696F6E322E737265635A
S113000012C02CC02BC02AC029C028C027C026C0BB
S113001025C024C023C022C021C020C088C01EC067
S11300201DC01CC01BC011241FBECFE5D4E0DEBF21
S1130030CDBF10E0A0E6B0E0E6E0FCE002C0059031
S11300400D92A638B107D9F710E0A6E8B0E001C0D8
S11300501D92A53CB107E1F729D0D3C5D1CF14BA7D
S1130060F894A6E2B0E01C92E7E2F0E080818064BC
S113007080838081806280838C9184608C938C9156
S113008080628C938C9188608C938C9180688C9323
S11300908C9180648C9378940895109296001092B9
S11300A0C10010929500109294000895EF92FF926F
S11300B00F931F93DF93CF9300D00F92CDB7DEB78A
S11300C0CEDFDE011196E0E6F0E083E001900D92D0
S11300D08150E1F783E390E0C2D17E010894E11CF2
S11300E0F11C00E21EE480918800909189008091C7
S11300F081008917B0F460918A0070918B0080E0D0
S113010090E04CD29B01AC0160E07EE386E197E491
S1130110DDD160938C0070938D0080938E0090935A
S11301208F00C701ADD1C8010197F1F7DCCF1F9251
S11301300F920FB60F9211242F933F934F935F9317
S11301406F937F938F939F93AF93BF93EF93FF939B
S1130150DF93CF93CDB7DEB76E97DEBFCDBF80916F
S113016088008093910085B180938800DE01119608
S1130170E3E6F0E08FE001900D928150E1F7CE01CB
S113018001967ED19091910080918200981708F099
S113019006C19091880080918200981708F4FFC0EE
S11301A0809188002091910090E0821B91099093A6
S11301B0930080939200209192003091930080915B
S11301C094009091950040918300281B390B1AF4F8
S11301D0309521953F4F842F90E0281739070CF074
S11301E0B8C0E0919600F0E0809192009091930065
S11301F0EE0FFF1FE956FF4F91838083E091960035
S1130200F0E08091AB009091AC00EE0FFF1FE3553E
S1130210FF4F918380831092AC001092AB008091C9
S11302209600882341F41092C100809196008F5F5C
S113023080939600B4C0EDEAF0E020813181809192
S1130240960090E0880F991FE80FF91F8081918133
S11302504091840050918500281B390B1AF4309585
S113026021953F4F241735070CF0D8C020919700F3
S11302703091980080919200909193004091830076
S1130280281B390B1AF4309521953F4F842F90E0A9
S1130290281739070CF0C2C0DE015096E2E7F0E0FF
S11302A08FE001900D928150E1F7CE014096E8D0A5
S11302B01092C3001092C200809196008823D9F056
S11302C040E06DEA70E0842F90E0880F991FFB01F5
S11302D0E80FF91F808191812091C2003091C30001
S11302E0820F931F9093C3008093C2004F5F80914D
S11302F09600481740F38091C2009091C3009093F8
S11303008B0080938A008091960090E0ADEAB0E083
S1130310880F991FFD01E80FF91F808191811196C3
S11303209C938E938091960090E0A7E9B0E0880FAB
S1130330991FFD01E80FF91F8081918111969C930B
S11303408E9381E0809396001092C10028C0A5DEB0
S113035026C0209192003091930080919400909156
S11303609500821793078CF48091920090919300EA
S113037090939500809394001092AC001092AB007F
S11303801092C100109296000AC08091C1008F5F44
S11303908093C1008091C1008A3008F07EDE809194
S11303A08800882319F08091880003C081E080933D
S11303B090008091AB009091AC0001969093AC00BA
S11303C08093AB008091860090918700AC014F5FD1
S11303D05F4F509387004093860080918200209164
S11303E0880090E0821B910999231CF490958195D3
S11303F09F4F982F8091C400891710F49093C400E4
S1130400485E5340B1F410928700109286008091A8
S1130410C400809389001092C4000BC080919600A0
S11304208F5F80939600809196008A3008F4B7CF4E
S11304308ECF6E96DEBFCDBFCF91DF91FF91EF914E
S1130440BF91AF919F918F917F916F915F914F91E8
S11304503F912F910F900FBE0F901F901895E0E4DD
S1130460F0E0908389B988E18AB98EE880830895A1
S1130470982FEBE2F0E0808185FFFDCF9CB90895D1
S1130480EF92FF920F931F93CF93DF938C01A82FCA
S1130490B12FFD0101900020E9F731977F01EA1A9D
S11304A0FB0A1E141F045CF4C0E0D0E0F801EC0F5A
S11304B0FD1F8081DDDF2196CE15DF05BCF3DF91C2
S11304C0CF911F910F91FF90EF9008950CD0BAC077
S11304D0B2D040F0A9D030F021F45F3F19F09BC0B6
S11304E05111E4C09EC0BFD098F39923C9F355239A
S11304F0B1F3951B550BBB27AA2762177307840713
S113050038F09F5F5F4F220F331F441FAA1FA9F3C8
S113051033D00E2E3AF0E0E830D091505040E695BA
S1130520001CCAF729D0FE2F27D0660F771F881F1B
S1130530BB1F261737074807AB07B0E809F0BB0B0A
S1130540802DBF01FF2793585F4F2AF09E3F51052E
S113055068F061C0ABC05F3FECF3983EDCF3869576
S113056077956795B795F7959F5FC9F7880F911DA4
S11305709695879597F90895E1E0660F771F881F90
S1130580BB1F621773078407BA0720F0621B730B43
S1130590840BBA0BEE1F88F7E0950895E89409C020
S11305A097FB3EF490958095709561957F4F8F4FA2
S11305B09F4F9923A9F0F92F96E9BB279395F695B8
S11305C0879577956795B795F111F8CFFAF4BB0F36
S11305D011F460FF1BC06F5F7F4F8F4F9F4F16C09A
S11305E0882311F096E911C0772321F09EE8872F24
S11305F0762F05C0662371F096E8862F70E060E0E0
S11306002AF09A95660F771F881FDAF7880F969558
S1130610879597F9089597F99F6780E870E060E0FF
S113062008959FEF80EC089500240A941616170687
S113063018060906089500240A94121613061406CF
S113064005060895092E0394000C11F4882352F032
S1130650BB0F40F4BF2B11F460FF04C06F5F7F4FEA
S11306608F4F9F4F089557FD9058440F551F59F0D1
S11306705F3F71F04795880F97FB991F61F09F3F8B
S113068079F087950895121613061406551FF2CFB4
S11306904695F1DF08C0161617061806991FF1CF04
S11306A086957105610508940895E894BB2766272B
S11306B07727CB0197F90895ABE0B0E0E1E6F3E0EA
S11306C069C23C012B015A01FC0117821682838105
S11306D081FD03C06FEF7FEFB9C19AE0892E1E013F
S11306E00894211C311CF3012381F20123FD85911F
S11306F023FF81912F01882309F4A5C1853239F4A0
S113070023FD859123FF81912F01853221F490E00F
S1130710B301B6D1E8CF982FFF24EE249924FFE14A
S1130720FF15D0F09B3269F09C3228F4903259F0D6
S1130730933291F40EC09D3249F0903369F441E054
S113074024C052E0F52A84E0F82A28C098E0F92A67
S113075025C0E0E1FE2A22C0F7FC29C0892F80537E
S11307608A3070F4F6FE05C0989C902C1124980EE3
S113077015C0E89CE02C1124E80EF0E2FF2A0EC01C
S11307809E3229F4F6FC5FC140E4F42A07C09C368B
S113079019F450E8F52A02C0983649F4F20123FD11
S11307A0959123FF91912F01992309F0B8CF892FB7
S11307B08554833018F08052833038F444E050E09C
S11307C0A40EB51E5FE359830FC0933631F09337FF
S11307D079F0933509F052C01FC0F50180818983F7
S11307E042E050E0A40EB51E610101E010E011C02A
S11307F0F501C080D180F6FC03C06FEF7FEF02C02B
S1130800692D70E042E050E0A40EB51EC6012DD162
S11308108C015FE7F52213C0F501C080D180F6FC9E
S113082003C06FEF7FEF02C0692D70E042E050E03B
S1130830A40EB51EC6010ED18C0150E8F52AF3FEB4
S113084006C018C080E290E0B3011AD1EA948E2D5C
S113085090E008171907B0F30DC0F601F7FC859175
S1130860F7FE81916F0190E0B3010AD1E110EA949F
S1130870015010400115110581F7E2C0943611F0C2
S1130880993661F5F7FE08C0F50120813181428176
S1130890538184E090E00AC0F501808191819C013C
S11308A0442737FD4095542F82E090E0A80EB91EEE
S11308B09FE6F92257FF09C0509540953095219540
S11308C03F4F4F4F5F4FE0E8FE2ACA01B901A10133
S11308D02AE030E001D1D82ED2183FC0953729F450
S11308E01F2D1F7E2AE030E01DC01F2D197F9F366B
S11308F061F0903720F4983509F0A5C00FC0903707
S113090039F0983709F09FC004C028E030E00AC0ED
S1130910106114FD146020E130E004C014FD166081
S113092020E132E017FF08C0F50160817181828106
S1130930938144E050E008C0F50180819181BC01BD
S113094080E090E042E050E0A40EB51EA101C4D0C6
S1130950D82ED2188FE7F82EF122F6FE0BC05EEFE8
S1130960F522D91438F4F4FE07C0F2FC05C08FEE6A
S1130970F82202C01D2D01C0192DF4FE0DC0FE0188
S1130980ED0DF11D8081803319F499EEF92208C030
S11309901F5FF2FE05C003C08F2D867809F01F5F2C
S11309A00F2DF3FC13C0F0FE0EC01E1510F09D2C8D
S11309B00AC09D2C9E0C911A1E2D05C080E290E069
S11309C0B3015ED01F5F1E15C8F304C01E1510F4DA
S11309D0E11A01C0EE2404FF0EC080E390E0B301ED
S11309E04FD002FF1BC001FD03C088E790E00EC09A
S11309F088E590E00BC0802F867881F001FF02C06B
S1130A008BE201C080E2F7FC8DE290E0B30138D0C4
S1130A1005C080E390E0B30133D09A94D914C8F3AD
S1130A20DA94F101ED0DF11D808190E0B30128D03D
S1130A30DD20B1F705C080E290E0B30121D0EA9453
S1130A40EE20C9F750CEF30166817781CB012B9656
S1130A50E2E1BCC0FC010590615070400110D8F780
S1130A60809590958E0F9F1F0895FC0161507040F2
S1130A7001900110D8F7809590958E0F9F1F0895CF
S1130A800F931F93CF93DF938C01EB018B8181FF35
S1130A901BC082FF0DC02E813F818C819D81281750
S1130AA0390764F4E881F9810193F983E88306C086
S1130AB0E885F985802F0995892B31F48E819F81F2
S1130AC001969F838E8302C00FEF1FEFC801DF9151
S1130AD0CF911F910F910895FA01AA27283051F15F
S1130AE0203181F1E8946F936E7F6E5F7F4F8F4F5B
S1130AF09F4FAF4FB1E03ED0B4E03CD0670F781FBA
S1130B00891F9A1FA11D680F791F8A1F911DA11D9E
S1130B106A0F711D811D911DA11D20D009F46894D7
S1130B203F912AE0269F11243019305D3193DEF67F
S1130B30CF010895462F4770405D4193B3E00FD035
S1130B40C9F7F6CF462F4F70405D4A3318F0495D20
S1130B5031FD4052419302D0A9F7EACFB4E0A69503
S1130B609795879577956795BA95C9F70097610525
S1130B70710508959B01AC010A2E0694579547957B
S1130B8037952795BA95C9F7620F731F841F951F70
S1130B90A01D08952F923F924F925F926F927F9281
S1130BA08F929F92AF92BF92CF92DF92EF92FF9279
S1130BB00F931F93CF93DF93CDB7DEB7CA1BDB0B25
S1130BC00FB6F894DEBF0FBECDBF09942A883988CA
S1130BD048885F846E847D848C849B84AA84B984D1
S1130BE0C884DF80EE80FD800C811B81AA81B981DD
S1130BF0CE0FD11D0FB6F894DEBF0FBECDBFED01F1
S1090C000895F894FFCFF3
S1130C060D0A004920414D20484552452031200D0A
S1130C160A004920414D20484552452032200D0AFC
S1090C2600107F030A0028
S9030000FC
