S01700004763634170706C69636174696F6E322E737265635A
S113000013C037C036C035C034C033C032C031C06D
S113001030C02FC02EC02DC02CC02BC070C029C032
S113002028C027C026C0F40211241FBECFE5D4E0A7
S1130030DEBFCDBF10E0A0E6B0E0E0EFF8E102C023
S113004005900D92AE3AB107D9F722E0AEEAB0E0DE
S113005001C01D92A636B207E1F710E0C4E1D0E07A
S113006003C02197FE0183D9C331D107D1F704D24C
S11300703DCCC6CF8F929F92AF92BF92CF92DF9228
S1130080EF92FF920F931F9314BA6894882484F814
S1130090912C6894AA24A1F8B12C6894CC24C2F8B9
S11300A0D12C0F2EF7E0EF2EF12CF02D01E110E012
S11300B022E130E043E150E063E070E089E092E067
S11300C0AFD2F89416B83E9A3D9A329A359A339A3A
S11300D0379A369A78941F910F91FF90EF90DF90A2
S11300E0CF90BF90AF909F908F9008951092D701BA
S11300F01092CE011092D2011092D10108951F9254
S11301000F920FB60F9211242F933F934F935F9347
S11301106F937F938F939F93AF93BF93EF93FF93CB
S1130120809107028093060285B180930702909123
S1130130060280916000981708F0D0C090910702E1
S113014080916000981708F005C1C8C0E091D701FC
S1130150F0E08091CF019091D001EE0FFF1FE452A7
S1130160FE4F91838083E091D701F0E080910402F7
S113017090910502EE0FFF1FE051FE4F91838083A3
S113018010920502109204028091D701811108C0D7
S11301901092CE018091D7018F5F8093D7019EC0CA
S11301A08091F0019091F101E091D701F0E0EE0F20
S11301B0FF1FE051FE4F2081318140916200509138
S11301C06300821B930B9C0122F422273327281BF4
S11301D0390B241735070CF0E1C08091DC019091B4
S11301E0DD014091CF015091D00120916400841B26
S11301F0950BAC0122F444275527481B590B822F39
S113020090E0481759070CF4D4C0C8C080E0E82F28
S1130210F0E0EE0FFF1FE051FE4F4081518120912D
S1130220DA013091DB01240F351F3093DB01209379
S1130230DA018F5F9091D701891748F38091DA0131
S11302409091DB019093D9018093D801E091D7017B
S1130250F0E0EE0FFF1FE051FE4F808191819093FB
S1130260F1018093F001E091D701F0E0EE0FFF1F60
S1130270E452FE4F808191819093DD018093DC01F3
S113028081E08093D7011092CE0128C02FDF26C0D1
S11302902091CF013091D0018091D1019091D20170
S11302A0821793078CF48091CF019091D0019093A1
S11302B0D2018093D101109205021092040210928F
S11302C0CE011092D7010AC08091CE018F5F809336
S11302D0CE018091CE018A3008F008DF80910702B8
S11302E0882309F46FC080910702809104029091E1
S11302F00502019690930502809304022091CC019B
S11303003091CD012F5F3F4F3093CD012093CC012D
S1130310809160004091070290E0841B9109AC0138
S113032022F444275527481B590B8091CB0184178D
S113033010F44093CB01283E334009F047C010929B
S1130340CD011092CC018091CB018093CA0110920F
S1130350CB013CC0809107022091060290E0821BF1
S113036091099093D0018093CF018091CF01909116
S1130370D0014091D1015091D20120916400841B9D
S1130380950BAC0122F444275527481B590B822FA7
S113039090E0481759070CF4D9CE7ACF8091D70151
S11303A08F5F8093D7018091D7018A3008F496CF6C
S11303B06DCF1092DB011092DA018091D701811187
S11303C025CF3CCF81E0809308028FCFFF91EF913E
S11303D0BF91AF919F918F917F916F915F914F9159
S11303E03F912F910F900FBE0F901F9018958F92F1
S11303F09F92AF92BF92CF92DF92EF92FF920F93B0
S11304001F93CF93DF936C017B0116161706D4F468
S11304108C01C0E0D0E0812C912C5401C114D10492
S113042051F0F8012081318142815381C501B40129
S113043065D54B015C0121960C5F1F4FEC16FD0640
S113044069F703C0812C912C5401B701FF0C880B70
S1130450990B57D69B01AC01C501B401B7D5DF9107
S1130460CF911F910F91FF90EF90DF90CF90BF90AD
S1130470AF909F908F900895FDDD83E390E036D593
S1130480809107029091CA0180916100891708F058
S1130490A4C06091D8017091D90180E090E02FD67A
S11304A09B01AC0160E07EE386E197E48FD5609325
S11304B0D3017093D4018093D5019093D601809198
S11304C0D8009091D9009C012F5F3F4F3093D90001
S11304D02093D8004091D3015091D4016091D5016B
S11304E07091D601880F991F880F991FFC01E6525D
S11304F0FF4F40835183628373832C33310524F08F
S11305001092D9001092D8006CE370E08AED90E06C
S11305106EDF6B017C012091D3013091D4014091B5
S1130520D5015091D601E9D4B9D59B01772324F4A0
S113053022273327261B370BB901330F880B990B5E
S1130540E0D54B015C012DEC3CEC4CE45EE3C701CF
S1130550B601AAD69B01AC01C501B40133D58823E9
S1130560E4F58091AE009091AF009C012F5F3F4F66
S11305703093AF002093AE004091D3015091D40149
S11305806091D5017091D601880F991F880F991F2A
S1130590FC01E055FF4F40835183628373832A300B
S11305A0310524F01092AF001092AE006AE070E0C2
S11305B080EB90E01CDF6B017C01AB01BC0187E5A3
S11305C092E09ED280916502882339F0A7019601BA
S11305D067E572E089E092E07BD18FE19EE40197C8
S11305E0F1F700C000004CCF10926502E9E0F2E0A0
S11305F017861686128A12A213A214A215A20895AF
S1130600FC019C01215F3F4F138A148A158A33969B
S1130610E217F307C9F76FE070E0439639D4089501
S11306208F929F92AF92BF92CF92DF92EF92FF92FE
S11306300F931F93CF93DF93CDB7DEB7FC01BA9A24
S113064071836083538342833583248317830683B2
S1130650F186E086D386C286B586A486918A808A8E
S113066017861686CDDFDF91CF911F910F91FF90F2
S1130670EF90DF90CF90BF90AF909F908F900895B0
S11306804F925F926F927F928F929F92AF92BF929E
S1130690CF92DF92EF92FF92CF93DF93EC014A0166
S11306A05B0129E23CE54FE05DE3C501B401FCD503
S11306B02B013C01FE01EE5BFF4F6083718382835B
S11306C093832AE939E949E15EE3C501B401ECD534
S11306D06B017C01FE01EA5BFF4F608371838283BF
S11306E0938323E333E343EB5EE3C501B401DCD539
S11306F04B015C01FE01E65BFF4F608371838283E3
S11307009383A301920160E070E080EF92EC5ED4E9
S11307106AA77BA78CA79DA780E090E0A8E4B3E438
S11307208EAB9FABA8AFB9AFA3019201C701B601CD
S1130730E4D39B01AC0160E070E08CE892EC46D419
S11307409B01AC016EA77FA788AB99ABC701B6012B
S1130750ABD59B01AC0160E070E080E291E4CDD3C5
S11307606AAF7BAF8CAF9DAFA7019601C501B40101
S1130770C4D39B01AC0160E070E080E291EC26D42C
S11307809B01AC016AAB7BAB8CAB9DABEE96C50118
S1130790B4018AD59B01AC0160E070E0CB01ADD31C
S11307A0688379838A839B83DF91CF91FF90EF9055
S11307B0DF90CF90BF90AF909F908F907F906F907D
S11307C05F904F9008958F929F92AF92BF92CF9275
S11307D0DF92EF92FF920F931F93CF93DF93EC017D
S11307E06A017B01B901A8014BDF20E030E0A901D7
S11307F0C701B601E7D388230CF458C0FE01E65BB9
S1130800FF4F80809180A280B380A5019401C7012D
S1130810B60146D518160CF44CC0FE01EE5BFF4F32
S11308202081318142815381C701B601CBD318168F
S1130830CCF4FE01EA5BFF4F208131814281538178
S1130840C701B601BFD3181654F4A5019401C7011A
S1130850B601B8D318164CF002E010E008C001E06D
S113086010E005C000E010E002C003E010E0F80171
S11308703196EE0FFF1FEE0FFF1FEC0FFD1F26A199
S113088037A140A551A5C701B6010ED50C5F1F4F76
S1130890000F111F000F111FC00FD11F2EA13FA168
S11308A048A559A52BD3FAD3CB0105C088EC90E019
S11308B002C080E090E0DF91CF911F910F91FF90F3
S11308C0EF90DF90CF90BF90AF909F908F9008955E
S11308D02F923F924F925F926F927F928F929F924C
S11308E0AF92BF92CF92DF92EF92FF920F931F933A
S11308F0CF93DF93CDB7DEB76C970FB6F894DEBF16
S11309000FBECDBF1C018B012D8B3E8B4F8B588F9F
S1130910DB0116968D919D910D90BC91A02D898F30
S11309209A8FAB8FBC8FFB0182849384A484B5849B
S11309309C01AD01C501B401E0D26B017C01D80179
S113094012964D905D906D907C901597298D3A8DFF
S11309504B8D5C8D6D897E898F89988DCED29B015C
S1130960AC01C701B60108D469837A838B839C8365
S1130970298D3A8D4B8D5C8DC301B201BED220E02E
S113098030E040E05FE390D49B01AC01C301B201CD
S1130990B4D29B01AC016D897E898F89988DADD2CB
S11309A07DD39B01772324F422273327261B370B7F
S11309B0B901330F880B990BA4D39B01AC01C70178
S11309C0B601DAD36D837E838F839887A301920166
S11309D06D897E898F89988D90D260D39B0177230E
S11309E024F422273327261B370BB901330F880B36
S11309F0990B87D39B01AC01C701B601BDD36987AD
S1130A007A878B879C87A3019201C501B40175D2B3
S1130A1020E030E040E05FE347D4A30192016ED2CE
S1130A202D893E894F89588D68D238D39B0177230D
S1130A3024F422273327261B370BB901330F880BE5
S1130A40990B5FD39B01AC01C701B60195D36D87A8
S1130A507E878F87988B2D893E894F89588DC50154
S1130A60B4014BD29B01AC01C701B60185D3698B9C
S1130A707A8B8B8B9C8BFE0131963F014101AA241A
S1130A80A394B12C06C0FFEFAF1ABF0A83E0880E0F
S1130A90911CD3014D915D916D917D913D01970123
S1130AA08601C10190DEB3E0AB16B10439F0F40164
S1130AB0838BF5E0AF16B10434F304C0D1015A9628
S1130AC08C93E1CF6FE070E0C1014396E1D16C9665
S1130AD00FB6F894DEBF0FBECDBFDF91CF911F914B
S1130AE00F91FF90EF90DF90CF90BF90AF909F90C9
S1130AF08F907F906F905F904F903F902F900895CC
S1130B002F923F924F925F926F927F928F929F9219
S1130B10AF92BF92CF92DF92EF92FF920F931F9307
S1130B20CF93DF93CDB7DEB72C970FB6F894DEBF23
S1130B300FBECDBF9E838D8349835A836B837C8391
S1130B402BE938E44EE751E469817A818B819C81F9
S1130B50A7D388230CF4F9C022E538E44EEF53E41C
S1130B6069817A818B819C812DD288230CF0EDC020
S1130B70F0C00F2EC12CD12CF0E8EF2EFFE3FF2E96
S1130B80F02DA7019601C701B601B8D16B017C0114
S1130B902BE938E44EEF51E487D34B015C019B0110
S1130BA0AC0169817A818B819C817AD318164CF3CC
S1130BB08F829886A986BA86E8C01C01510181E01B
S1130BC0A81AB108AB85BC856D917D918D919D91DD
S1130BD0BC87AB87A701960167D39B01AC016981F0
S1130BE07A818B819C8189D159D29B01772324F40A
S1130BF022273327261B370BB901330F880B990B98
S1130C0080D2962E072F182F892E272D342D452D6F
S1130C10562DD8D1882354F4C1010196792C402E45
S1130C20512E682C8C30910541F601C01501F1015B
S1130C30EF58FF4F8081ED81FE818083F101EB59F4
S1130C40FF4F8081AD81BE8111968C93F101EE0F2F
S1130C50FF1FEE0FFF1FE358FF4F208131814281B8
S1130C605381C701B60120D32B013C01ED81FE81E4
S1130C70628373838483958381E08687FBE02F16E8
S1130C80310459F48F819885A985BA85ED81FE8157
S1130C9082879387A487B58732C0F101EE0FFF1FC7
S1130CA0EE0FFF1FEF57FF4F2081318142815381A7
S1130CB0C701B601F9D2A30192011FD120E030E0AF
S1130CC040E05FE3F1D2A301920118D1AD81BE816E
S1130CD01A966D937D938D939C931D9721143104E3
S1130CE071F42BE938E44EE751E4C701B601DCD2D4
S1130CF0ED81FE816683778380879187B0C0F1019F
S1130D00EE0FFF1FEE0FFF1FE758FF4F20813181C9
S1130D1042815381C701B601C7D29B01AC01C30113
S1130D20B201EBD020E030E040E05FE3BDD29B01B4
S1130D30AC01C301B201E1D0AD81BE8116966D93C1
S1130D407D938D939C9319978AC0ED81FE811686BD
S1130D5086C02BE938E44EEF51E469817A818B81B6
S1130D609C819ED218160CF404CF8BE998E4AEEF64
S1130D70B1E48F839887A987BA870F2EC12CD12C11
S1130D80F0E8EF2EFFE3FF2EF02D23E130ED42E8F3
S1130D9051E4C701B60188D29B01AC0169817A8113
S1130DA08B819C81AAD07AD19B01772324F42227BA
S1130DB03327261B370BB901330F880B990BA1D1AD
S1130DC0762E472E582E692E22E538E44EEF53E452
S1130DD0F9D0882344F4A1E8B0E022242394312CF0
S1130DE0BC87AB87EBCE80917000ED81FE81808360
S1130DF08091640081832091790030917A00409140
S1130E007B0050917C00C701B6014ED22B013C01FE
S1130E10AD81BE8112966D937D938D939C931597AE
S1130E2081E01E968C9323E130ED42E851E4C70142
S1130E30B6013AD2A301920160D020E030E040E054
S1130E405FE332D2A301920159D0ED81FE81628722
S1130E5073878487958722242A94322C50CF2C962A
S1130E600FB6F894DEBF0FBECDBFDF91CF911F91B7
S1130E700F91FF90EF90DF90CF90BF90AF909F9035
S1130E808F907F906F905F904F903F902F90089538
S1130E90BA9A28B32B7F38B334604FB7F8946115EE
S1130EA0710509F421C0FC01680F791F919188E054
S1130EB038BB97FF28BB990F000000C028BB000077
S1130EC000C000C000C000C000C000C000C000C01E
S1130ED000C000C000C000C000C000C000C08A95AF
S1130EE039F7E617F70711F74FBF089590BD89B991
S1130EF088E18AB98EE880BD08955058BB27AA2797
S1130F000ED094C185D130F08AD120F031F49F3FC6
S1130F1011F41EF47AC10EF4E095E7FB70C1E92FD9
S1130F2096D180F3BA17620773078407950718F000
S1130F3071F49EF5AEC10EF4E0950B2EBA2FA02DE0
S1130F400B01B90190010C01CA01A0011124FF2772
S1130F50591B99F0593F50F4503E68F11A16F0406D
S1130F60A22F232F342F4427585FF3CF469537956C
S1130F702795A795F0405395C9F77EF41F16BA0B31
S1130F80620B730B840BBAF09150A1F0FF0FBB1FDF
S1130F90661F771F881FC2F70EC0BA0F621F731F28
S1130FA0841F48F4879577956795B795F7959E3F85
S1130FB008F0B3CF9395880F08F09927EE0F979513
S1130FC087950895F8D008F481E008950CD02EC1D7
S1130FD026D140F01DD130F021F45F3F19F00FC14C
S1130FE0511158C112C133D198F39923C9F3552330
S1130FF0B1F3951B550BBB27AA2762177307840708
S113100038F09F5F5F4F220F331F441FAA1FA9F3BD
S113101033D00E2E3AF0E0E830D091505040E695AF
S1131020001CCAF729D0FE2F27D0660F771F881F10
S1131030BB1F261737074807AB07B0E809F0BB0BFF
S1131040802DBF01FF2793585F4F2AF09E3F510523
S113105068F0D5C01FC15F3FECF3983EDCF3869582
S113106077956795B795F7959F5FC9F7880F911D99
S11310709695879597F90895E1E0660F771F881F85
S1131080BB1F621773078407BA0720F0621B730B38
S1131090840BBA0BEE1F88F7E095089504D068948A
S11310A0B111F8C00895DBD088F09F5790F0B92FA4
S11310B09927B751A0F0D1F0660F771F881F991FA9
S11310C01AF0BA95C9F712C0B13081F0E2D0B1E09C
S11310D00895DFC0672F782F8827B85F39F0B93FAC
S11310E0CCF3869577956795B395D9F73EF49095AB
S11310F08095709561957F4F8F4F9F4F0895E89429
S113110009C097FB3EF490958095709561957F4F4B
S11311108F4F9F4F9923A9F0F92F96E9BB279395F9
S1131120F695879577956795B795F111F8CFFAF409
S1131130BB0F11F460FF1BC06F5F7F4F8F4F9F4F3A
S113114016C0882311F096E911C0772321F09EE898
S1131150872F762F05C0662371F096E8862F70E0FE
S113116060E02AF09A95660F771F881FDAF7880FD8
S11311709695879597F90895990FBB0B550FAA0B70
S1131180E0E8FEEF16161706E807F90770F01216E6
S11311901306E407F50760F0BA1754F031F4261784
S11311A0370748075907A7951BF4B901CA01BA2F95
S11311B0B69597950895990F0008550FAA0BE0E886
S11311C0FEEF16161706E807F907C0F01216130605
S11311D0E407F50798F0621B730B840B950B39F445
S11311E00A2661F0232B242B252B21F408950A26AB
S11311F009F4A140A6958FEF811D811D089597F9EB
S11312009F6780E870E060E008959FEF80EC0895A8
S113121000240A94161617061806090608950024D1
S11312200A9412161306140605060895092E03944B
S1131230000C11F4882352F0BB0F40F4BF2B11F4BF
S113124060FF04C06F5F7F4F8F4F9F4F089557FD1E
S11312509058440F551F59F05F3F71F04795880F20
S113126097FB991F61F09F3F79F0879508951216B7
S113127013061406551FF2CF4695F1DF08C0161663
S113128017061806991FF1CF869571056105089414
S11312900895E894BB2766277727CB0197F908952B
S11312A08ADF08F48FEF08950BD0C0CFB1DF28F0A8
S11312B0B6DF18F0952309F0A2CFA7CF1124EACF07
S11312C0C6DFA0F3959FD1F3950F50E0551F629FA1
S11312D0F001729FBB27F00DB11D639FAA27F00D8B
S11312E0B11DAA1F649F6627B00DA11D661F829FB2
S11312F02227B00DA11D621F739FB00DA11D621F97
S1131300839FA00D611D221F749F3327A00D611DB3
S1131310231F849F600D211D822F762F6A2F112495
S11313209F5750408AF0E1F088234AF0EE0FFF1FE8
S1131330BB1F661F771F881F91505040A9F79E3F1F
S1131340510570F05CCFA6CF5F3FECF3983EDCF321
S1131350869577956795B795F795E7959F5FC1F75C
S1131360FE2B880F911D9695879597F90895EE0F9A
S1131370FF1F0590F491E02D0994ABE0B0E0E2EC9E
S1131380F9E07DC26C017B018A01FC01178216829F
S1131390838181FFBFC1CE0101963C01F601938197
S11313A0F70193FD859193FF81917F01882309F4CF
S11313B0ADC1853239F493FD859193FF81917F010D
S11313C0853221F4B60190E0C0D1E8CF912C212CD4
S11313D0312CFFE1F315D8F08B3279F038F48032F8
S11313E079F08332A1F4232D20611DC08D3261F088
S11313F0803369F4232D216016C0832D8260382E3A
S1131400E32DE4603E2E2AC0F32DF8601DC037FCA6
S11314102DC020ED280F2A3040F08E32B9F436FC6E
S113142075C1232D2064322E19C036FE06C08AE011
S1131430989E200D1124922E11C0EAE02E9E200DBC
S11314401124222EF32DF0623F2E08C08C3621F495
S1131450832D8068382E02C0883641F4F70193FD4D
S1131460859193FF81917F018111B3CF982F9F7D47
S11314709554933028F40C5F1F4F9FE399830DC05C
S1131480833631F0833771F0833509F055C020C0BD
S1131490F801808189830E5F1F4F88248394912CE7
S11314A0530112C02801F2E04F0E511CF801A08034
S11314B0B18036FE03C0692D70E002C06FEF7FEF8C
S11314C0C50138D14C018201F32DFF773F2E15C0A1
S11314D0280122E0420E511CF801A080B18036FEA2
S11314E003C0692D70E002C06FEF7FEFC50117D113
S11314F04C01F32DF0683F2E820133FC19C0822D7C
S113150090E088169906A0F4B60180E290E01DD11F
S11315102A94F5CFF50137FC859137FE81915F015F
S1131520B60190E012D121102A9421E0821A910888
S11315308114910479F7E1C0843611F0893639F5C4
S1131540F80137FE07C060817181828193810C5F4D
S11315501F4F08C060817181072E000C880B990B06
S11315600E5F1F4FF32DFF763F2E97FF09C0909516
S11315708095709561957F4F8F4F9F4FF0683F2EF8
S11315802AE030E0A3011DD1882E861844C0853797
S113159031F4232D2F7EB22E2AE030E025C0932D86
S11315A0997FB92E8F36C1F018F4883579F0AEC022
S11315B0803719F0883721F0A9C0E92FE061BE2EE9
S11315C0B4FE0DC0FB2DF460BF2E09C034FE0AC06A
S11315D0292F2660B22E06C028E030E005C020E1A5
S11315E030E002C020E132E0F801B7FE07C06081BC
S11315F07181828193810C5F1F4F06C0608171816C
S113160080E090E00E5F1F4FA301DBD0882E861888
S1131610FB2DFF773F2E36FE0DC0232D2E7FA22EED
S1131620891458F434FE0BC032FC09C0832D8E7E1D
S1131630A82E05C0B82CA32C03C0B82C01C0B92C0B
S1131640A4FE0FC0FE01E80DF11D8081803321F45A
S11316509A2D997EA92E09C0A2FE06C0B394B39414
S113166004C08A2D867809F0B394A3FC10C0A0FEB0
S113167006C0B21480F4280C922C9B180DC0B2142E
S113168058F4B60180E290E060D0B394F8CFB2147D
S113169018F42B1802C0982C212CA4FE0FC0B601FC
S11316A080E390E052D0A2FE16C0A1FC03C088E7FC
S11316B090E002C088E590E0B6010CC08A2D8678DF
S11316C051F0A1FE02C08BE201C080E2A7FC8DE2D2
S11316D0B60190E03AD0891430F4B60180E390E08A
S11316E034D09A94F8CF8A94F301E80DF11D8081E7
S11316F0B60190E02AD08110F6CF222009F44ECE14
S1131700B60180E290E021D02A94F7CFF6018681D9
S1131710978102C08FEF9FEF2B96E2E1CCC0FC01D2
S11317200590615070400110D8F7809590958E0F08
S11317309F1F0895FC016150704001900110D8F77B
S1131740809590958E0F9F1F08950F931F93CF93AD
S1131750DF93FB01238121FD03C08FEF9FEF2CC09A
S113176022FF16C0468157812481358142175307D1
S113177044F4A081B1819D012F5F3F4F31832083C9
S11317808C93268137812F5F3F4F3783268314C084
S11317908B01EC01FB010084F185E02D0995892B77
S11317A0E1F6D80116968D919C911797019617969C
S11317B09C938E931697CE01DF91CF911F910F9139
S11317C00895FA01AA27283051F1203181F1E894D3
S11317D06F936E7F6E5F7F4F8F4F9F4FAF4FB1E020
S11317E03ED0B4E03CD0670F781F891F9A1FA11D1B
S11317F0680F791F8A1F911DA11D6A0F711D811D1C
S1131800911DA11D20D009F468943F912AE0269FE0
S113181011243019305D3193DEF6CF010895462F3F
S11318204770405D4193B3E00FD0C9F7F6CF462F20
S11318304F70405D4A3318F0495D31FD4052419389
S113184002D0A9F7EACFB4E0A69597958795779546
S11318506795BA95C9F700976105710508959B01CD
S1131860AC010A2E06945795479537952795BA9556
S1131870C9F7620F731F841F951FA01D08952F922F
S11318803F924F925F926F927F928F929F92AF920C
S1131890BF92CF92DF92EF92FF920F931F93CF9359
S11318A0DF93CDB7DEB7CA1BDB0B0FB6F894DEBFF0
S11318B00FBECDBF09942A88398848885F846E8416
S11318C07D848C849B84AA84B984C884DF80EE8060
S11318D0FD800C811B81AA81B981CE0FD11D0FB669
S11318E0F894DEBF0FBECDBFED010895F894FFCF8D
S11318F07F100A0003000100010000010001000143
S11319000043434444454646474741414213D0823D
S11319104160978A4117D59241BCA49B4154D0A4FD
S113192041379DAE4149FFB8416AFFC34100A7CF8B
S1111930410000DC41F614E94110F1F64100DB
S9030000FC
